:020000040040BA
:10000000482D4020C50C4000C30C4000C30C4000EC
:10001000C30C4000C30C4000C30C400000000000B3
:10002000000000000000000000000000751040000B
:10003000C30C400000000000D11040003911400006
:10004000C30C4000C30C4000C30C4000C30C400074
:10005000C30C4000C30C4000C30C4000C30C400064
:10006000C30C400000000000F106400005074000FE
:1000700019074000C30C4000C30C4000C30C4000F3
:100080002D07400041074000C30C4000C30C400056
:10009000C30C4000C30C4000C30C4000C30C400024
:1000A000C30C4000C30C4000C30C4000C30C400014
:1000B000C30C4000C30C4000C30C4000C30C400004
:1000C000C30C4000C30C4000C30C4000C30C4000F4
:1000D00000000000C30C400000000000C30C400002
:1000E000C30C4000C30C4000C30C4000C30C4000D4
:1000F000C30C4000C30C4000C30C4000C30C4000C4
:10010000C30C4000C30C4000C30C4000C30C4000B3
:10011000C30C4000000000000000000000000000D0
:10012000C30C4000C30C4000C30C4000C30C400093
:10013000C30C400000000000C30C4000C30C400092
:1001400010B5054C237833B9044B13B10448AFF311
:1001500000800123237010BDB8094020000000007A
:10016000149C40000C4B43B10C480D4910B5AFF343
:1001700000800C48036823B910BD0A48036833B9EE
:100180007047094B002BF7D0BDE810401847064BCD
:10019000002BF5D0184700BF00000000149C400061
:1001A000BC094020149C40000000000010B510481D
:1001B000104B98473E2100200F4B98470F4CA0470B
:1001C0000028FCD00E4B98470E4A0F4B9A620F4CFA
:1001D000A0470028FCD002200D4B984700200D4B73
:1001E00098470D4B98470248024B984710BD00BFF7
:1001F00000A3E111990E4000F107400045084000BE
:1002000055084000013F182000060E4065084000D8
:10021000550740008D0740008D0D40002DE9F0414D
:1002200080B90C469046002A0FDD8F18084E094D04
:10023000306821462B6898470134BC42F8D14046CB
:10024000BDE8F0814FF0FF38F9E78046F7E700BFDF
:10025000CC0C4020C40C40200138022815D82DE9D0
:10026000F0410E4614469AB10D46DFF838800C4F27
:10027000D8F8000015F8011B3B68984700280ADBF6
:10028000A81B013CF4D1BDE8F0814FF0FF3070476E
:100290001046BDE8F0814FF0FF30BDE8F08100BFAF
:1002A000C80C4020CC0C4020F8B54FF400425C4B09
:1002B0005A60BFF34F8FBFF36F8F5A4B0022C3F8C2
:1002C00050225A6942F400325A61BFF34F8FBFF394
:1002D0006F8FD3F88070C7F34E3607F007000430F5
:1002E000C7F3C907B7FA87FE0EF01F0EBFF34F8F93
:1002F0004FF0FF3404FA00FC06FA00F004FA0EF4A2
:1003000007FA0EFE1D463A46734640EA0301C5F859
:100310006012013A2344B2F1FF3FF6D1013E60443E
:10032000B6F1FF3FEFD1BFF34F8F3E4B5A6942F416
:1003300080325A61BFF34F8FBFF36F8F3A4A3B4908
:100340005160A1F580715160BFF34F8FBFF36F8F84
:10035000D3F8902222F00102C3F89022D3F894221D
:1003600022F00102C3F89422BFF34F8FBFF36F8FC7
:100370000A202F4CA0470B20A0470C20A04710209C
:10038000A0471120A0472B4B4FF480721A61C3F88D
:10039000A0201A63A3F580634FF400625A61C3F88A
:1003A000A0205A66C3F890205A651A62C3F88420C8
:1003B000196F21F400611967596F21F400615967C1
:1003C000C3F8C020C3F8D420C3F8B0204FF4001203
:1003D0001A66C3F890205A655A62C3F88020196FD4
:1003E00021F400111967596F21F4001159675A60FF
:1003F000114AD2F8143143F01003C2F814310F4BF4
:1004000010221A66C3F890205A655A62C3F88020F9
:10041000196F11431967596F114359675A60F8BD35
:1004200050180E4000ED00E0000C0E400C08005A81
:100430007508400000120E400080084000100E4079
:10044000C0F8841053004FF40042B2FBF3F2013ABB
:10045000C2F30D02C0F88C207047016370474163FE
:1004600070474264B1F1C05F3AD013D8B1F1006F68
:1004700025D0B1F1805F0AD1036F13430367436F47
:10048000416F0B4023EA0203436742607047002933
:10049000FBD17047B1F1205F21D009D8B1F1005FE5
:1004A000F3D1036F13430367436F13434367ECE7D1
:1004B000B1F1405F13D0B1F1605F10D0E5E710B447
:1004C000016F046FD34321401C4619400167436FFD
:1004D000416F0B402340436742605DF8044B704717
:1004E000036F016F0B4023EA02030367436F13435B
:1004F0004367CAE7416412F0010F0DD1016612F0A3
:100500000A0F0BD0016212F0020F09D112F0080F8E
:1005100008D0C0F8841005E04166F0E74162F2E7D8
:10052000C0F8801041610160704710B4019C4164C3
:100530004CB901664BB101654AB941630161016083
:100540005DF8044B70474166F4E74165F4E70163E9
:10055000F4E7000070B582B0054616461C46B1F1BE
:10056000005F14D00AD9B1F1405F24D0B1F1605FCF
:1005700021D0B1F1205F17D000201AE0B1F1805FE7
:1005800005D0B1F1C05F02D0B1F1006FF4D13246B5
:100590002846114B984714F0010F02D12E66012016
:1005A00007E06E66012004E01A4631460B4B98477F
:1005B000012002B070BD04F001030093C4F3800376
:1005C000B1F1605F14BF0022012231462846044C7D
:1005D000A0470120EDE700BF63044000F5044000A0
:1005E0002B054000836B0B4214BF01200020704795
:1005F00012F0100F12D0C0F8B01012F0200F07D078
:10060000C0F8D41012F0400F05D0C0F8C0107047E9
:10061000C0F8D010F6E7C0F8C4107047C0F8B410A6
:10062000704701647047C06C7047806C7047000071
:100630002DE9F041044688460E4B98470546204672
:100640000D4B9847054013D00C4C04F1600603E0B5
:10065000B4420DD010345DB120684045F8D16168D6
:100660002942F5D0E3689847636825EA0305EFE778
:10067000BDE8F081270640002B064000D409402049
:10068000F8B5184C2668062E2AD84FF0000C6446A0
:10069000154F04E00134E4B2A446A64209D3A646AD
:1006A00025017D598D42F5D107EB04156D68954202
:1006B000F0D10D4D4FEA0E1E05EB0E0445F80E105D
:1006C0006260A3600699E1600136664505D0114677
:1006D0001A46064B98470020F8BD02490E60F6E71F
:1006E0000120F8BD440A4020D4094020F105400013
:1006F00008B50A210148024B984708BD000E0E407C
:100700003106400008B50B210148024B984708BD4F
:1007100000100E403106400008B50C210148024B84
:10072000984708BD00120E403106400008B5102160
:100730000148024B984708BD00140E4031064000A6
:1007400008B511210148024B984708BD00160E401C
:1007500031064000032811D0042812D002280CBF13
:100760004FF480710021084A136B23F440730B434C
:100770001363936E13F0080FFBD070474FF4407172
:10078000F1E74FF40071EEE700060E40174A136BD5
:1007900023F0700318431063936E13F0080F0AD10F
:1007A0004FF4805311498A6E12F0080F03D1013BB8
:1007B000F9D1012070470D4A136B23F0030343F076
:1007C00002031363936E13F0080F0AD14FF48053A2
:1007D00006498A6E12F0080F05D1013BF9D10120BC
:1007E0007047002070470020704700BF00060E4091
:1007F000A0B90E48036A090289B20D4A1A400D4B8E
:100800001343194301620246936E13F0010FFBD0AC
:10081000064A116A084B0B431362704703490B6A7F
:10082000064A1A40064B13430B62704700060E40FF
:10083000FCFFC8FF0100370000003701FCFFC8FEC5
:1008400002003701024B986E00F48030704700BF01
:1008500000060E404FF00052014B9A62704700BFF5
:1008600000060E40024B986E00F00200704700BF79
:1008700000060E403F281ED81F280CD8114B9A693D
:1008800001238340934318D0012303FA00F00D4B5A
:1008900018610020704720380A4BD3F80821012343
:1008A000834093430BD0012303FA00F0054BC3F8B8
:1008B0000001002070470120704700207047002091
:1008C000704700BF00060E4070470000104A136FCB
:1008D00023F4C00343F480031367116A0D4B0B43E9
:1008E0001362936E13F0080FFBD04FF4FA7300BF3E
:1008F000013BFCD1064A136A13F0080FFBD0044AEF
:10090000136F23F4C00343F480031367704700BFE1
:1009100000060E40040037002DE9F843431E042B67
:1009200000F20781DFE813F005000500150015004F
:10093000F600814A136923F00403136101227F4BFF
:100940001A70BFF35F8F62B6BFF34F8F30BFBDE841
:10095000F883044603280CBF00204FF40010784BA6
:10096000984772B6BFF35F8F0022744B1A70012252
:10097000744B1A70744B1F6A1D6B744AD2F8008056
:100980009E6A734A3A431A6205F00309B9F1010FEE
:1009900040F2898025F0030141F0010119631A46F4
:1009A000936E13F0080FFBD011F0700F08D021F0F8
:1009B0007001654B19631A46936E13F0080FFBD054
:1009C000644B9847604A936E13F4003FFBD05E4A35
:1009D000116A614B0B4043F45C131362936E13F482
:1009E000803FFBD028F47063584A1360042C5CD01D
:1009F000524C01232370BFF35F8F62B6574B984769
:100A000072B6BFF35F8F0023237017F0020F55D02B
:100A10004D4A136A52491940524B0B431362116AF3
:100A2000514B0B4043F45C131362504B3340002B8B
:100A30006ED046F00056444B9E620221B9F1020F7F
:100A400004D1414A936E13F0020FFBD03E4A136B60
:100A500023F0700305F0700003431363936E13F0EB
:100A6000080FFBD0394BC3F80080A3F5C0631D63AA
:100A70001A46936E13F0080FFBD0334A936E0B4265
:100A8000FCD000222F4B1A70394B1B681BB19847C2
:100A90000022374B1A600122284B1A70BFF35F8F78
:100AA00062B6BDE8F88329467EE7A2F5C062116A06
:100AB000304B0B4043F45C13136299E717F0010FBE
:100AC000B3D0214B1B6A13F0010F0BD11E490B6AE7
:100AD000294A1A40294B13430B620A46936E13F0BE
:100AE000010FFBD0184B1B6A13F0807F08D1164A08
:100AF000116A234B0B431362936E13F4803FFBD0B8
:100B0000114A116A184B0B4043F45C1313628CE7D3
:100B1000002193E7084A136943F004031361194A5B
:100B2000194B1A600122054B1A70BFF35F8F62B632
:100B300030BFBDE8F88300BF00ED00E000004020BA
:100B4000C9084000480A402000060E40000C0E4034
:100B50000800370055084000FFFFC8FECD084000E0
:100B6000FCFFC8FE0200370187FFC8FF0000FF0737
:100B70004C0A4020FEFFC8FFFCFFC8FF0100370001
:100B800000003701040000A510180E40436913F05F
:100B9000020F02D0C16100207047012070474369F5
:100BA00013F0010F03D083690B7000207047012000
:100BB000704710B40B01934214D9C9004B0803EBE2
:100BC000C202B2FBF1F2D3085C1E4FF6FE718C42FA
:100BD00001D9012017E0416841F4002141600CE097
:100BE000012010E0590801EBC202B2FBF3F2D30876
:100BF0005C1E4FF6FE718C42F2D8120402F4E02221
:100C00001A43026200205DF8044B7047084BC0F89D
:100C1000E43000234360436283628823036024231B
:100C200003604FF4807303604FF400230360704748
:100C30000041535570B505460C4616460F4B984774
:100C400000220F4B1A60A4B13246216828460D4B92
:100C50009847024678B96368A1680B4321690B4342
:100C6000E1680B4306490B6069680B436B601046F3
:100C700070BD0122FBE70122F9E700BF0D0C400027
:100C8000500A4020B30B40004023036070471023FC
:100C900003607047436913F0020F04D0C1F30801E9
:100CA000C1610020704701207047436913F0010FB4
:100CB00005D08369C3F308030B600020704701204F
:100CC0007047FEE700B583B0254B264A9A4210D004
:100CD000254B234A9A420CD2013B9B1A23F0030373
:100CE000043313441F4951F8040B42F8040B9A4291
:100CF000F9D11E4B1E4A9A420AD2013B9B1A23F09D
:100D0000030304331344002142F8041B9342FBD134
:100D1000184A194B23F07F039360EFF31083B3FA63
:100D200083F35B09019372B6BFF35F8F0022134B0D
:100D30001A700199124A136843F470031360BFF3E9
:100D40004F8FBFF36F8F29B101220C4B1A70BFF385
:100D50005F8F62B60B4B98470B4B9847FEE700BF7F
:100D600000004020149C4000B8094020480D40205D
:100D7000B809402000ED00E00000400000004020E5
:100D800088ED00E0AD324000B53040003B4B1B6BBE
:100D900003F00303012B1DD083B1022B36D0374B58
:100DA0001B6B03F07003702B5FD0344B1A6B34490C
:100DB000C2F302120B68D3400B607047314B5B6982
:100DC00013F0800F14BF4FF400424FF4FA422C4B43
:100DD0001A60E4E7294B1B6A13F0807F03D02A4A8C
:100DE000274B1A60DBE7294A254B1A60234B1B6A05
:100DF00003F07003102B05D0202BD0D1224A204BBA
:100E00001A60CCE7224A1E4B1A60C8E71B4B1B6ACC
:100E100013F0807F16D01C4A194B1A60174B1B6BBE
:100E200003F00303022BBAD1144A916A926A144860
:100E3000C1F30A41036801FB0333D2B2B3FBF2F3FF
:100E40000360ACE7114A0E4B1A600C4B1B6A03F0AF
:100E50007003102B05D0202BE0D10B4A084B1A60F1
:100E6000DCE70B4A064B1A60D8E7054A13680949C4
:100E7000A1FB03135B081360704700BF00060E4020
:100E80000400402010180E40001BB70000093D0070
:100E900000127A00ABAAAAAA164B984213D9164B95
:100EA000984215D9154B984216D9154B984217D927
:100EB000144B984218D9144B984294BF134A144AC1
:100EC000144B1A6070474FF08062124B1A607047E3
:100ED000114A104B1A607047104A0E4B1A60704747
:100EE0000F4A0C4B1A6070474FF00422094B1A60EE
:100EF000704700BFBFF35E017FE7BD023FDB1C040C
:100F0000FFCE7B05BFC2DA067FB6390800050004B4
:100F100000060004000C0E40000100040002000462
:100F2000000300040A4B1B6853B1094B1B681A18D5
:100F30000849914208DB1046054A10601846704780
:100F4000054A034B1A60F0E74FF0FF30704700BFCF
:100F5000540A4020FCFF4520482F40204FF0FF302E
:100F600070474FF400534B600020704701207047DA
:100F70000020704700F1080343604FF0FF328260A9
:100F8000C36003610023036070470023036170475F
:100F900043684B609A688A609A68516099600861FA
:100FA000036801330360704730B40D68B5F1FF3F4B
:100FB00002D000F1080202E0026904E01A46536818
:100FC0001C68A542FAD253684B6099608A605160F0
:100FD000086103680133036030BC704703694268ED
:100FE000816891608268416851605A68904205D07A
:100FF00000220261186801381860704782685A60E0
:10100000F6E74FF0800372B683F31188BFF36F8F5A
:10101000BFF34F8F62B6FEE706480068006880F3B2
:10102000088862B661B6BFF34F8FBFF36F8F00DFE2
:1010300000BF000008ED00E0DFF80C00016841F49B
:10104000700101607047000088ED00E04FF0807390
:1010500040F8043C40F8081C054B40F80C3C40F8B4
:10106000202C6FF0020340F8243C4438704700BF46
:1010700003104000064B19680868B0E8F04F80F391
:101080000988BFF36F8F4FF0000080F3118870471D
:10109000580A4020704700BF4FF0800372B683F3B8
:1010A0001188BFF36F8FBFF34F8F62B6024A136888
:1010B00001331360704700BF08004020034A1368E3
:1010C000013B13600BB983F311887047080040207F
:1010D000EFF30980BFF36F8F154B1A681EF0100FE6
:1010E00008BF20ED108A20E9F04F10604DF8043D54
:1010F0004FF0800072B680F31188BFF34F8FBFF3BB
:101100006F8F62B600F0EEFF4FF0000080F31188A1
:1011100008BC19680868B0E8F04F1EF0100F08BF4F
:10112000B0EC108A80F30988BFF36F8F704700BF5F
:10113000580A4020704700BF08B5EFF311834FF005
:10114000800272B682F31188BFF36F8FBFF34F8FA7
:1011500062B6054B984718B14FF08052034B1A60A6
:10116000002383F3118808BDF51C400004ED00E066
:10117000034A044B1A600722043B1A60704700BF01
:101180007F4F120014E000E008B50C4B1A6842F4DF
:1011900060021A601A6842F060421A60084B984771
:1011A0000022084B1A60084B9847084A136843F01E
:1011B00040431360064B9847064B984720ED00E0EC
:1011C00071114000080040203910400034EF00E069
:1011D000191040000310400010B50446064B984714
:1011E0002046064B98470446054B98470CB12046CD
:1011F00010BD044B9847FAE7CD1C40002533400052
:101200002D1E40007F2E400048B110B50446044B0F
:1012100098472046034B9847034B984710BD7047AB
:10122000CD1C4000353340002D1E400038B504462B
:101230001546026C62B9036823B10020A36B013329
:10124000A36338BD4068184B984700236360F5E7F7
:101250006DB98068154B9847A368226C1344A3604E
:10126000626893421CD32368A3600020E6E7C0684D
:101270000E4B9847226C5242E3681344E3602168A6
:101280008B4202D263681A44E260022D01D0002032
:10129000D4E7A36B33B1A36B013BA3630020CDE77D
:1012A0000020CBE70020C9E735244000A5384000E6
:1012B00030B583B00190446DA26BE36B9A4203D3C7
:1012C0000025284603B030BD0A4601A920460B4B35
:1012D00098470546A36CB3F1FF3F03D0A36C0133DD
:1012E000A364EEE7636A002BEBD004F12400044B07
:1012F0009847002818BF0125E3E700BF2D124000E2
:1013000069224000026C72B110B5C3681344C36017
:101310004468A34201D30368C3600C46C1682046F9
:10132000014B984710BD7047A5384000F8B50446FA
:10133000224B9847A36C002B1BDD214D214F224EE1
:101340000BE0636AABB104F12400B04778B9A36C39
:10135000013BA364A36C002B0BDD636D002BF0D06D
:1013600000212046A8470128F1D1B847EFE7B84748
:10137000EDE74FF0FF33A364144B98470F4B9847AA
:10138000636C002B14DD236993B104F110060E4D3C
:101390000C4F07E0636C013B6364636C002B07DD5B
:1013A00023692BB13046A8470028F3D0B847F1E7AE
:1013B0004FF0FF336364054B9847F8BD9910400028
:1013C000B11240006523400069224000BD1040007A
:1013D00038B504460D46184B98472268216CE36BDC
:1013E00003FB01F3D01860600020A063A2605B1AC9
:1013F0001344E3604FF0FF336364A364A5B923692A
:101400001BB90E4B9847012038BD04F110000C4B5E
:1014100098470128F5D14FF080520A4B1A60BFF36C
:101420004F8FBFF36F8FECE704F11000064DA84714
:1014300004F12400A847E4E799104000BD104000E3
:101440006922400004ED00E0750F4000F8B5054644
:1014500017460E4659B100FB01F059300D4B984725
:10146000044618B100F15803036006E0F8BD5820A7
:10147000084B9847044660B12460E5632664012167
:101480002046054B984784F850700023636520463A
:10149000F8BDF8BDD9114000D11340002DE9F04F3F
:1014A00085B004468A4601921F4600264A4DDFF861
:1014B0005481DFF834914AE03A4651462046474B82
:1014C0009847636DA3B139462046454B984701289C
:1014D00005D0444B9847012005B0BDE8F08F4FF090
:1014E0008052414B1A60BFF34F8FBFF36F8FF0E70D
:1014F000636A53B90028ECD04FF080523A4B1A601F
:10150000BFF34F8FBFF36F8FE3E704F12400374B36
:1015100098470128DDD14FF08052334B1A60BFF35A
:101520004F8FBFF36F8FD4E72E4B98470020D3E740
:1015300002A8C04717E0002363641DE00023A364F2
:101540001EE020462A4B98472A4B98470126A84779
:10155000A26BE36B9A42AFD3022FADD0019B002B5D
:10156000E2D0002EE4D01F4B9847234B9847A84762
:10157000636CB3F1FF3FDED0A36CB3F1FF3FDDD06E
:10158000184B984701A902A81C4B9847E0B9A847F7
:10159000D4F838B0E66B134B9847B345D1D10199D5
:1015A00004F11000164B98472046114B9847114BF9
:1015B00098470028CAD14FF08053C9F80030BFF3D4
:1015C0004F8FBFF36F8FC1E72046094B9847094BF8
:1015D0009847002080E700BF991040002D1240007E
:1015E000B1124000BD10400004ED00E0692240004F
:1015F0002D1340002D1E4000CD1C40000123400053
:1016000095214000E9224000F8B5EFF311874FF033
:10161000800472B684F31188BFF36F8FBFF34F8FCE
:1016200062B6856BC46BA54205D3022B03D00020A4
:1016300087F31188F8BD1D46164604461A46134B1B
:101640009847A36CB3F1FF3F04D0A36C0133A364AC
:101650000120EDE7636D43B1294620460C4B9847C6
:1016600086B101280ED13060E2E7636A0BB9012030
:10167000DEE704F12400074B98472EB120B101208A
:101680003060D5E70120D3E70120D1E72D124000DB
:10169000B11240006922400038B5EFF311844FF0D9
:1016A000800372B683F31188BFF36F8FBFF34F8F40
:1016B00062B6826BC36B9A4224D2836B013383631D
:1016C000836CB3F1FF3F06D0836C01338364012048
:1016D00084F3118838BD0D46436D3BB100210C4B9E
:1016E00098478DB101280FD12860F1E7436A0BB903
:1016F0000120EDE72430074B98473DB130B1012080
:101700002860E5E70020E3E70120E1E70120DFE7CB
:10171000B1124000692240002DE9F04784B0044630
:101720008A460192994600264D4DDFF864814D4F5F
:1017300054E0E568514620464B4B9847B9F1000FFD
:101740001FD1A36B013BA36323683BB123694BB952
:10175000464B9847012004B0BDE8F087444B9847BA
:101760006060F3E704F11000424B98470128EFD185
:101770004FF080523B4B1A60BFF34F8FBFF36F8F18
:10178000E6E7E560636A002BE2D004F12400394B00
:1017900098470028DCD04FF08052324B1A60BFF3DC
:1017A0004F8FBFF36F8FD3E7304B98470020D2E7BE
:1017B00002A8C0471BE00023636421E00023A36468
:1017C00022E0A84760682C4B9847284B98472BE0AD
:1017D00020462A4B98472A4B98470126A847A36BD7
:1017E000002BA6D1019B002BDED0002EE0D01F4B9A
:1017F0009847244B9847A847636CB3F1FF3FDAD072
:10180000A36CB3F1FF3FD9D0184B984701A902A8A8
:101810001D4B9847E0B9A847A66B144B9847002E7C
:10182000D6D12368002BCCD0019904F12400174BAA
:1018300098472046114B9847114B98470028CCD128
:101840004FF080533B60BFF34F8FBFF36F8FC4E700
:1018500020460A4B98470A4B984700207BE700BF79
:101860009910400004ED00E005134000BD10400059
:10187000C925400069224000912340002D134000FB
:101880002D1E4000CD1C400001234000952140004A
:10189000E922400010B40B4B1B6853B10123094CE3
:1018A00054F8332032B10133082BF9D15DF8044BE1
:1018B00070470023034A42F8331002EBC303586019
:1018C000F4E700BFD00C402070B504460D46164624
:1018D0000F4B9847636CB3F1FF3F0BD0A36CB3F190
:1018E000FF3F0AD00B4B9847A36B4BB120460A4BE6
:1018F000984770BD00236364F0E70023A364F1E719
:101900003246294604F12400044B9847EEE700BF15
:1019100099104000BD1040002D13400001224000EE
:101920002DE9F04F0F68002F50D04B685B684B607B
:1019300001F1080E734508D04B68D3F80CC0064679
:1019400000274FF00208384620E0CB684B60F3E7F1
:10195000CB684B601FE0D9F84830CAF81430CAF899
:101960001800D9F830B09BF80030A52B2CD10BF122
:101970000103A3EB0B0513F8014BA52CF9D0AD081F
:10198000AAF81C5001372036CC451FD04B685B6845
:101990004B609E45DCD04B68D3F80C90B246C6F83D
:1019A000009009F134037360D9F84030B3603273AA
:1019B000D9F82C303361032ACDD1D9F82830002B47
:1019C000C9D086F80C80C6E70546D8E73846BDE89A
:1019D000F08F0000084B1B681B683BB1064B1B686F
:1019E000DB68DB685A68054B1A6070474FF0FF32BE
:1019F000024B1A60704700BF5C0A4020080B402071
:101A000010B50F4B1B6858600E4B1B6898420ED3E5
:101A100004460D4B18680A4B196804310B4B984764
:101A20000B4B1B689C4201D2094B1C6010BD094B3B
:101A30001868034B19680431044B984710BD00BF68
:101A4000580A4020500B40205C0A4020A90F40005B
:101A5000080B4020600A40202DE9F04F83B0009031
:101A60000E4617460193DDF830B0DDF834A00E9D28
:101A7000002D00F0898058205F4B984704460028CD
:101A800000F088800563BA00A52128465B4B984783
:101A90006FF040433B44256B05EB830525F00705BC
:101AA000337884F8343033785BB1334604F1340250
:101AB0000936597802F8011F13F8011F09B1B34222
:101AC000F7D1002784F83D705E46042E28BF042617
:101AD000E662A664E76404F104084046DFF870910A
:101AE000C84704F11800C8472461C6F10506A6617D
:101AF0006462276584F85470019A00992846404B27
:101B000098472060BAF1000F01D0CAF800403D4B61
:101B100098473D4A1368013313603C4B1B68002B08
:101B20003ED03B4B1B6833B9384B1B68DB6A9B4587
:101B300001D3364B1C60374A1368013313602364AA
:101B4000E06A354A1168012383400B43136000EBC0
:101B500080004146314B03EB8000314B9847314BBD
:101B600098472B4B1B68002B40D0284B1B68DB6A27
:101B70009B453FD94FF080522B4B1A60BFF34F8FDC
:101B8000BFF36F8F012032E090001B4B9847054652
:101B900018B170E72846254B98474FF0FF3026E0F4
:101BA0001A4B1C601368012BC5D11C4E3046204DCA
:101BB000A84706F11400A84706F12800A84706F137
:101BC0003C00A84706F15000A8471A4F3846A847DE
:101BD000194E3046A8471948A8471948A847194838
:101BE000A847194B1F60194B1E60A4E7012003B0E2
:101BF000BDE8F08F0120FAE7D9114000D939400043
:101C00004D10400099104000C80A4020580A40205A
:101C1000240B4020D40A4020DC0A4020640A4020E3
:101C2000910F4000BD10400004ED00E0091240009B
:101C3000750F4000E00A4020F40A4020100B4020BD
:101C40003C0B4020280B40205C0A4020600A4020CA
:101C50008B0F400010B584B00023039302930193CF
:101C60000093822211491248124CA047012801D04A
:101C700004B010BD104B98470128F9D14FF08003F4
:101C800072B683F31188BFF36F8FBFF34F8F62B6C5
:101C90004FF0FF32094B1A600122094B1A600022F3
:101CA000084B1A60084B9847E2E700BFD8974000FE
:101CB0009D1F4000591A4000A1264000080B4020FB
:101CC000240B4020500B402089114000024A136829
:101CD00001331360704700BFD00A4020014B1868E1
:101CE000704700BF500B4020014B1868704700BF81
:101CF000C80A40202DE9F0473D4B1B68002B6ED1F0
:101D00003C4B1A6801321A60D3F800A0BAF1000FF8
:101D10001BD0394B1B689A4524D20026374B1B68D1
:101D2000DB6A03EB8303364A52F82330022B28BFC9
:101D30000126344B1B68002B4ED0334B1B68002B05
:101D40000CBF30460120BDE8F087304A1168304BA7
:101D50001868106019602F4A1368013313602E4B06
:101D60009847D6E70026294FDFF8B890DFF8B8800B
:101D700021E04FF0FF32204B1A60CFE71E4A13607C
:101D8000CCE704F11800C847E06AD8F80020012326
:101D900083401343C8F8003000EB80002946184BFD
:101DA00003EB80001D4B9847144B1B68E26ADB6A0B
:101DB0009A4228BF01263B681B68002BD9D03B689C
:101DC000DB68DC6863689A45D8D3251D2846C84778
:101DD000A36A002BD5D1D7E7114B9847ADE7094A45
:101DE0001368013313600E4B98470026A5E700BF28
:101DF000D00A4020500B4020080B4020580A4020B9
:101E0000640A4020CC0A4020540B40205C0A402049
:101E1000600A40200C0B4020D5194000910F400073
:101E20007D2E4000DD0F4000DC0A40202DE9F84304
:101E30002F4B98472F4B1A68013A1A601B68002BEA
:101E400050D12D4B1B6833B32C4EDFF8D4802C4F70
:101E5000DFF8D090336803B3F368DC6804F118004E
:101E6000C047251D2846C047E06A3A6801238340E1
:101E700013433B6000EB8000294609EB8000214BB7
:101E80009847214B1B68E26ADB6A9A42E2D301223F
:101E90001E4B1A60DEE7002425E01D4B1B688BB14A
:101EA0001B4B1B6873B11B4D184E194C04E0236883
:101EB000013B236023682BB1A8470028F7D00123FA
:101EC0003360F4E7114B1B68012B01D000240AE0BA
:101ED0004FF08052104B1A60BFF34F8FBFF36F8FDC
:101EE000012400E000240D4B98472046BDE8F8830C
:101EF00099104000D00A4020C80A4020100B402012
:101F0000DC0A4020910F4000580A4020540B40202A
:101F1000CC0A4020F51C400004ED00E0BD1040005C
:101F2000DD0F4000640A402010B540B94FF08052E8
:101F3000124B1A60BFF34F8FBFF36F8F10BD044673
:101F40000F4B98470F4B1B681C440F4B186804300D
:101F50000E4B984748B90C4B1A680D490B68D06A6C
:101F60000122824023EA02030B602046094B984776
:101F7000094B98470028E1D1D8E700BF04ED00E005
:101F8000CD1C4000500B4020580A4020DD0F40007F
:101F9000DC0A4020011A40002D1E400080B51A4D79
:101FA000DFF88880194FDFF888900DE0184B1B6828
:101FB000012B07D94FF08053C9F80030BFF34F8F82
:101FC000BFF36F8F134B9847134E2B68002BEDD048
:101FD000C0473C68B047002CF7D0104B9847FB68CF
:101FE000DC68201D0E4B98470E4A1368013B1360B6
:101FF0002B68013B2B600C4B9847206BDFF834A01B
:10200000D0472046D047E0E7D80A40203C0B40208C
:10201000640A40206D2E40002D1E400099104000A3
:10202000DD0F4000C80A4020BD104000CD1C40001C
:1020300004ED00E0091240002DE9F04706460C4689
:1020400017461F4B98471F4B1B68A34235D81E4BA2
:1020500003F15005A3F1140800244FF0010ADFF842
:1020600070905246294606EB4410C8470444143D7C
:102070004545F6D1154B1968022206EB4410144D64
:10208000A8470444134B1968022206EB4410A847E2
:1020900004440422104906EB4410A84704440322D8
:1020A0000E4906EB4410A84704440FB100233B60DF
:1020B0000B4B98472046BDE8F0870024F8E700BFA7
:1020C000CD1C4000C80A4020640A40205C0A402021
:1020D00021194000600A40203C0B4020280B402082
:1020E0002D1E4000254B1B68002B2ED110B5002261
:1020F000234B1A60234B1B681B6B1A68B2F1A53F78
:1021000027D0204B1868196834311F4B98471F4B54
:102110001B68B3FA83F3DBB2C3F11F031C4A9900B7
:10212000C81802EB800044686468446019440246A1
:10213000083294421AD003EB8303154A02EB83035F
:102140005B68DA680F4B1A6010BD01220C4B1A60F5
:1021500070475A68B2F1A53FD3D19A68B2F1A53F52
:10216000CFD1DB68B3F1A53FCBD1D0E760680A4699
:10217000074901EB82025060DDE700BFD00A402032
:10218000540B4020580A4020552E4000DC0A4020C5
:10219000640A402038B50D46114C21681831114BA6
:1021A000984720680430104B984740B922680F497F
:1021B0000B68D06A0122824023EA02030B60B5F16A
:1021C000FF3F05D00A4B186828440A4B984738BD92
:1021D000034B196804310848084B984738BD00BFC5
:1021E000580A4020A90F4000DD0F4000DC0A4020C3
:1021F000500B4020011A4000280B4020910F400056
:1022000070B50E461546114C21681831104B984791
:10221000206804300F4B984740B922680E490B687C
:10222000D06A0122824023EA02030B60012D05D00F
:102230000A4B186830440A4B984770BD034B196825
:1022400004310848024B984770BD00BF580A40202F
:10225000910F4000DD0F4000DC0A4020500B402071
:10226000011A4000280B402038B5C368DC6804F12F
:1022700018052846144B9847144B1B68E3B9251DD5
:102280002846114B9847E06A114A116801238340A0
:102290000B43136000EB800029460E4B03EB8000DC
:1022A0000D4B98470D4B1B68E26ADB6A9A4208D9CE
:1022B00001200B4B186038BD29460A48064B984749
:1022C000F0E7002038BD00BFDD0F4000D00A4020FD
:1022D000DC0A4020640A4020910F4000580A402048
:1022E000540B4020100B4020034B1B680360034B32
:1022F0001B684360704700BF0C0B4020500B402010
:1023000038B504460D46124B9847124B1A682B6895
:10231000B3F1FF3F18D0104909682068884202D005
:1023200061688A4212D26168501A834204D801243B
:102330000A4B9847204638BD8A1A13442B60204622
:10234000074B98470024F3E70024F1E70124EFE767
:1023500099104000500B40200C0B4020BD10400055
:10236000E92240000122014B1A607047540B4020C3
:10237000054B1B6833B1054B1B68002B0CBF0220BB
:102380000020704701207047240B4020D00A4020D5
:10239000002844D038B50446C26A21490968C96A90
:1023A0008A4214D28169002905DB1D490968C96A7E
:1023B000C1F10501816102EB82021A4901EB82023F
:1023C0006169914204D0164A1268D26AE26238BD4D
:1023D000251D2846144B984770B9E36A03EB830127
:1023E000104A52F821203AB910480268012101FA36
:1023F00003F322EA03030360094B1B68D86AE06217
:102400000A4A1168012383400B43136000EB8000EC
:102410002946044B03EB8000054B984738BD7047B5
:10242000580A4020640A4020DD0F4000DC0A4020AA
:10243000910F4000002833D038B50446C26C013AF1
:10244000C264C06AA16C88422CD05ABB251D2846A4
:10245000154B984770B9E36A03EB8301134A52F8AE
:1024600021203AB912480268012101FA03F322EA55
:1024700003030360A06CE062C0F10503A3610C4A92
:102480001168012404FA00F30B43136000EB800091
:102490002946064B03EB8000064B9847204638BD83
:1024A00000207047002038BDDD0F4000640A402046
:1024B000DC0A4020910F40002DE9F04784B004462B
:1024C00000230370384B1A68039218684001374B99
:1024D0009847002865D0054603990022344B984759
:1024E000039000230293029A039B9A4256D24FF024
:1024F0000008DFF8D0902F4E3DE0422706E053273A
:1025000004E0442702E0474600E05227029B05EB27
:10251000431359682046C8472046B047082808D8C2
:10252000204404F10902202300F8013B8242FBD140
:10253000092004EB000A04F80080029B029A029929
:1025400005EB43131B6905EB41118968019105EB0C
:102550004212928B00923A4617495046174CA047B8
:102560005046B0470AEB0004029B01330293029AE3
:10257000039B9A4212D2029B05EB43131B7B013B48
:10258000032BC0D801A252F823F000BF0B25400056
:10259000FB244000FF244000032540002846084B50
:1025A000984704B0BDE8F087C80A4020D911400020
:1025B00039204000813D4000C8974000513C400018
:1025C000091240009D3C4000054B1B6823B1044BA1
:1025D0001A68D36C0133D364014B1868704700BF8D
:1025E000580A402008B54160006191420CD8D21AC7
:1025F00083699A4201D3012008BD011D094B186867
:10260000094B9847002008BD9A4203D2994201D352
:10261000012008BD011D054B1868034B9847002099
:1026200008BD00BF5C0B4020A90F4000580B4020A4
:1026300070B5104B9847104B1B6813B10F4B984760
:1026400070BD0F4D28460F4EB0470F4C2046B04787
:102650000E4B1D600E4B1C600022102105200D4BFF
:102660009847054B18600028E8D00B490B4B98475A
:10267000E4E700BF991040008C0B4020BD104000E3
:10268000600B4020750F4000740B4020580B402019
:102690005C0B40204D144000E0974000951840002E
:1026A00010B584B00A4B98470A4B1B686BB10023E6
:1026B000039302930193042200924FF4827206491D
:1026C0000648074CA04704B010BD0020FBE700BF40
:1026D000312640008C0B4020E8974000E127400065
:1026E000591A400030B585B0104C2568DDB11C4644
:1026F00000910192029005290EDC0D4B98470228AB
:102700004FF000030CBF089A1A4669460748006854
:10271000084CA04705B030BD002322466946284634
:10272000054CA047F6E70020F4E700BF8C0B4020E3
:10273000712340009D144000091640002DE9F04728
:1027400082B080461F4B984707461F4B1B68984234
:1027500010D30023C8F800301B4B1F60384602B06E
:10276000BDE8F087002100910B4652462046174CE9
:10277000A04701E0164D174E2B681A68C2B1DB68FE
:10278000D3F800A0DC6804F104094846B047636A46
:1027900020469847E369012BEED1A36953449A453B
:1027A000E0D263602461494628680B4B9847E3E711
:1027B0000A4A10680649086013600123C8F800300F
:1027C000CAE700BFDD1C4000880B4020E526400022
:1027D000580B4020DD0F4000A90F40005C0B40204B
:1027E0002DE9F04F89B0634E634F644DDFF8B0912F
:1027F000DFF8B08133681A68002A00F0A980DB682E
:10280000D3F800A0B84704A85D4B98470446049B42
:10281000002B37D1504511D20022AAEB04012868C1
:10282000584B9847584B984770BB4FF08053C9F8A6
:102830000030BFF34F8FBFF36F8F25E0524B9847A7
:102840003368DB68D3F80CB00BF10400C047DBF849
:102850001C30012B04D0DBF824305846984713E095
:10286000DBF818105346224651445846474CA047BF
:102870000128F0D1002100910B4652465846444CA5
:10288000A047E8E7404B9847424C06E00799069876
:10289000059B9847049B002B09DA00231A4604A9DC
:1028A0002868A0470028A5D0049B002BEEDBDDF8AC
:1028B00018A0DAF8143013B10AF10400C04703A8D5
:1028C0002F4B9847049B092BE7D801A252F823F01D
:1028D000F9284000F9284000F92840009B284000D2
:1028E0003529400049294000F9284000F9284000D6
:1028F0009B28400035294000059CDAF81810234633
:10290000024621445046214CA0470128BCD1DAF8A8
:10291000243050469847DAF81C30012BB4D1DAF84D
:102920001820002100910B46059802445046184C8F
:10293000A047A9E70599CAF81810034602460144C2
:102940005046124CA0479FE75046134B98479BE7D1
:10295000B84704A80A4B98470446049B002B91D122
:102960000E4B1B681A68B2FA82F252094FF0000A45
:1029700053E700BF580B4020CD1C40008C0B40207B
:102980003D274000C91840002D1E4000E5254000AD
:10299000E526400019174000091240005C0B40205A
:1029A00004ED00E0DD0F400030B583B002AC012340
:1029B00044F8043D0548064DA8472146054B1868D4
:1029C000054B98470548A84703B030BD0098400024
:1029D000FD324000140D4020991640001098400030
:1029E00030B583B002AC012344F8043D0548064DE0
:1029F000A8472146054B1868054B98470548A84746
:102A000003B030BDF0974000FD324000180D40206B
:102A1000991640001098400030B583B002AC0123F5
:102A200044F8043D0548064DA8472146054B186863
:102A3000054B98470548A84703B030BDF0974000C4
:102A4000FD3240001C0D40209916400010984000B7
:102A500030B583B002AC012344F8043D0548064D6F
:102A6000A8472146054B1868054B98470548A847D5
:102A700003B030BDF0974000FD324000100D402003
:102A80009916400010984000F8B50322002101205B
:102A9000114B9847114B186010B91148114B9847CA
:102AA0000E4E114D114F05E04FF480733B63FA2039
:102AB0000F4B9847002423464FF4FA7221463068A2
:102AC000A8470128F7D1FB6B13F4807FECD04FF4BB
:102AD00080737B63EBE700BF4D144000140D402072
:102AE000E8984000FD3240001917400000120E40E7
:102AF000291F400080B5094F094E0A4DB8470146CD
:102B00003046A847084C2046084B98472046A8471F
:102B10004FF47A70064B9847F0E700BFE91C40007D
:102B200018994000FD324000900B4020B92440002D
:102B3000291F4000F0B583B005460C4600230193E1
:102B40002A4B984213D02A4B984218D0294B9842CE
:102B50001DD0294B9D4222D0284B9D4227D0284B87
:102B60009D422ED0274B9D4235D003B0F0BD1F466D
:102B7000254E21463846B0470028FAD1E9E71F46DE
:102B8000214E21463846B0470028FAD1E4E71F46D7
:102B90001D4E21463846B0470028FAD1DFE71F46D0
:102BA000194E21463846B0470028FAD1DAE71E46CA
:102BB000164D01A93046A8470028FAD1019B237081
:102BC000D3E71E46114D01A93046A8470028FAD187
:102BD000019B2370C9E71E460C4D01A93046A8474A
:102BE0000028FAD1019B2370BFE700BF00080E4008
:102BF000000A0E40001A0E40001C0E400040024029
:102C00000080024000C002409F0B4000AB0C40001F
:102C100070B50C462A4B984213D02A4B984219D0D3
:102C2000294B98421FD0294B984225D0284B9842D7
:102C30002BD0284B984231D0274B984237D00020D8
:102C400070BD1E46254D21463046A8470028FAD1C2
:102C5000012070BD1E46214D21463046A847002860
:102C6000FAD1012070BD1E461C4D21463046A847B2
:102C70000028FAD1012070BD1E46184D214630466D
:102C8000A8470028FAD1012070BD1E46144D2146E8
:102C90003046A8470028FAD1012070BD1E46104DCD
:102CA00021463046A8470028FAD1012070BD1E46B3
:102CB0000B4D21463046A8470028FAD1012070BDAF
:102CC00000080E40000A0E40001A0E40001C0E4084
:102CD000004002400080024000C002408D0B4000D6
:102CE000950C400038B504460D46064B984720B970
:102CF00029462046044B984738BD29462046034BB9
:102D0000984738BDE50540005B0440005F04400083
:102D1000F8B50322002101200F4B98470F4B186094
:102D200010B90F480F4B98470C4E0F4D0F4F002412
:102D300023464FF4FA7221463068A8470128F7D19C
:102D40003846084B9847042109480A4B9847FA200F
:102D5000094B9847EBE700BF4D144000100D402091
:102D6000E8984000FD3240001917400004994000E7
:102D700000100E40E52C4000291F4000F8B503224A
:102D8000002101200F4B98470F4B186010B90F48D6
:102D90000F4B98470C4E0F4D0F4F002423464FF416
:102DA000FA7221463068A8470128F7D10B48084B32
:102DB00098474FF080413846094B9847FA20094B15
:102DC0009847EAE74D1440001C0D4020E898400069
:102DD000FD3240001917400000120E4004994000D7
:102DE000E52C4000291F4000F8B5032200210120F6
:102DF0000F4B98470F4B186010B90F480F4B98476F
:102E00000C4E0F4D0F4F002423464FF4FA7221460B
:102E10003068A8470128F7D10B48084B9847012193
:102E200038460A4B9847FA20094B9847EBE700BF12
:102E30004D144000180D4020E8984000FD3240003D
:102E400019174000000E0E4004994000E52C400088
:102E5000291F400008B50A4601460248024B984720
:102E6000FEE700BF28994000FD32400008B502206F
:102E7000014B984708BD00BF1909400070477047D3
:102E800030B583B0124B4FF480621A60002283F891
:102E90000A23104C09234FF400624FF020512046C2
:102EA0000D4DA8473C224FF4006120460B4B98473C
:102EB0004FF4006120460A4B98470A4B0093502379
:102EC0004FF400620A212046074CA04703B030BDF2
:102ED00000E100E0000E0E405505400041044000B6
:102EE00023064000A92940008106400030B583B088
:102EF000124B4FF480321A60002283F81023104CDA
:102F000009234FF080524FF0205120460D4DA84725
:102F10003C224FF0805120460B4B98474FF0805198
:102F200020460A4B98470A4B009350234FF080529B
:102F300010212046074CA04703B030BD00E100E05F
:102F400000140E4055054000410440002306400097
:102F5000E12940008106400030B583B0124B4FF4A8
:102F600080521A60002283F80C23104C09234FF082
:102F700000424FF0205120460D4DA8473C224FF013
:102F8000004120460B4B98474FF0004120460A4B2A
:102F900098470A4B009350234FF000420C212046E3
:102FA000074CA04703B030BD00E100E000120E4026
:102FB000550540004104400023064000192A400006
:102FC0008106400030B583B0124B4FF480621A6026
:102FD000002283F80A23104C09234FF400224FF0FB
:102FE000205120460D4DA8473C224FF40021204699
:102FF0000B4B98474FF4002120460A4B98470A4B49
:10300000009350234FF400220A212046074CA0478A
:1030100003B030BD00E100E0000E0E405505400059
:103020004104400023064000512A40008106400030
:1030300010B582B004460A20054B98470023009340
:10304000224601210348044CA04702B010BD00BF36
:1030500075084000000E0E402B05400010B582B0F0
:1030600004460C20054B98470023009322464FF05E
:1030700080410348034CA04702B010BD75084000D2
:1030800000120E402B05400010B582B004460B2004
:10309000054B984700230093224604210348044C23
:1030A000A04702B010BD00BF7508400000100E40E0
:1030B0002B05400070B58AB0514B9847514B98474B
:1030C000514D524B1D60524A524B1A60524A534B5B
:1030D0001A604FF4E1330493C02305934FF4006367
:1030E00006930024079408940E204D4B98474D4AB0
:1030F00004A928464C4B984728464C4B98472846ED
:103100004B4B98474B4E3368214698684A4DA84729
:10311000336821465868A847336821469868A8470D
:103120004648474DA84747494748A847474A48495E
:103130004848A847484B9847484B9847484B9847BA
:10314000484B98470120484B98470120474B9847E8
:103150000120474B9847039402940194009423461E
:103160004FF4007243494448444CA047012801D021
:103170004348A847002303930293019300934FF41D
:103180008072404940483D4CA047012802D03F484A
:103190002B4B9847002303930293019300934FF422
:1031A00080723B493B48354CA047012802D0374844
:1031B000234B9847002303930293019300934FF40A
:1031C0008072354935482D4CA047012802D02F4840
:1031D0001B4B9847002303930293019300934FF4F2
:1031E00080722F492F48254CA047012802D027483C
:1031F000134B98472C4B984700200AB070BD00BF76
:10320000AD014000A902400000800240CC0C4020EB
:10321000112C4000C80C4020352B4000C40C40202D
:103220007508400080D1F008350C4000890C400042
:103230008F0C40000C004020B13A40002098400024
:10324000FD3240003C9840004898400050984000B3
:103250005C98400068984000812E4000ED2E4000B0
:10326000592F4000C52F4000313040005D304000F4
:103270008930400080984000F52A4000591A4000EB
:1032800088984000A8984000892A4000AC984000E7
:10329000D0984000E92D4000D89840007D2D400096
:1032A000E0984000112D4000551C400070B50F4EB5
:1032B0000F4D761BB61018BF002405D0013455F809
:1032C000043B9847A642F9D10A4E0B4D761B06F0F7
:1032D0008BFCB61018BF002406D0013455F8043B0F
:1032E0009847A642F9D170BD70BD00BFF49B400065
:1032F000F49B4000FC9B4000F49B40000FB400B5E1
:10330000074983B004AB086853F8042B8168019324
:1033100002F012F803B05DF804EB04B0704700BF90
:103320000C004020024B0146186800F00BB800BFAB
:103330000C004020024B0146186804F0D9B800BFC9
:103340000C0040202DE9F04F01F10B06162E83B042
:10335000054640F29E8036F0070600F1BD80B1427E
:1033600000F2BA8000F086FBB6F5FC7FC0F09382D5
:10337000730A00F0B880042B00F27981B30903F1DD
:10338000390003F1380EC300BF4F3B44A3F10801DD
:103390005C68A14206D10CE0002A80F2AA80E468B1
:1033A000A14206D0636823F003039A1B0F2AF3DDC2
:1033B00070463C69DFF8E4E2744500F0AB81636875
:1033C00023F003039A1B0F2A00F39081002AC7F809
:1033D00014E0C7F810E080F29D80B3F5007F80F024
:1033E0006181DB0803F1010C99107A6857F83C8081
:1033F000C4F8088001238B4007EBCC011343083944
:10340000E1607B6047F83C40C8F80C408210012422
:1034100094409C4200F28B801C4206D120F00300B5
:1034200064001C4200F10400FAD007EBC009CC464E
:103430008046DCF80C309C4507D16DE1002A80F213
:103440007B81DB689C4500F06781596821F00301AE
:103450008A1B0F2AF2DDD3F80CC0D3F80880009342
:103460009C19284646F0010642F001055E60C8F846
:103470000CC0CCF808807C613C61C4F80CE0C4F856
:1034800008E065605A5000F0FBFA009B03F1080465
:103490001EE0102920D800F0EDFA10261823022093
:1034A000794F3B44A3F108025C68944200F03D81EF
:1034B0006368E168A66823F00303234428465A683A
:1034C000F16042F001028E605A6000F0D9FA0834CF
:1034D000204603B0BDE8F08F00240C2320462B606B
:1034E00003B0BDE8F08F40204FF400734FF03F0E63
:1034F0004AE72344E1685A68A66842F00102F16095
:1035000028468E605A6000F0BBFA0834204603B0AB
:10351000BDE8F08F234428465A6842F001025A6001
:1035200000F0AEFA0834204603B0BDE8F08FBC6866
:10353000636823F00308B04504D3A8EB06030F2B00
:1035400000F38580DFF85891504BD9F800201B68B4
:103550000132334404EB080A00F0558103F580532F
:103560000F3323F47F6B2BF00F0B5946284600F0E6
:103570008DFA411C024600F0FC80824500F2F78083
:10358000434B19685944196000F04D81D9F8000087
:1035900001301BBFA2EB0A0A5144C9F80020196090
:1035A00012F0070100F01581C1F10800C1F580514A
:1035B0000244083102EB0B09C9F30B09A1EB09091D
:1035C000494628460193009200F060FA431C9DE8AA
:1035D0000C0000F04381801A484440F00100196853
:1035E000BA604944BC425060196017D0B8F10F0F5F
:1035F00040F2FB806068A8F10C0222F0070204EBA5
:10360000020E00F001004FF0050C10430F2A60601D
:10361000CEF804C0CEF808C000F217811D4BBC687C
:103620001A68914288BF19601B4B1A689142626800
:1036300088BF196022F003029642A2EB060301D86C
:103640000F2B04DC284600F01BFA002440E7A219E7
:1036500043F0010346F0010666602846BA605360F5
:1036600000F00EFA0834204603B0BDE8F08F142BAA
:1036700071D9542B00F2A380330B03F16F0003F1D7
:103680006E0EC30080E600BF38044020C00C40200E
:10369000900C4020B80C4020BC0C4020400440203E
:1036A000400840205A0A042A5BD9142A00F2AE804E
:1036B00002F15C01C9005B3207EB010C7958ACF1F7
:1036C000080C8C4500F088804A6822F0030293427F
:1036D00073D289688C45F7D1DCF80C207B68E260F6
:1036E000C4F808C09460CCF80C408FE6A11946F0ED
:1036F000010C42F00106C4F804C028467961396122
:10370000C1F80CE0C1F808E04E60E25000F0B8F9F2
:103710000834DDE67B6879E608F1010818F0030F4C
:103720000CF1080C7FF485AE2DE0DC68A34208BFE5
:1037300002303FF43EAEBBE619441C464A68DB68E3
:1037400054F8086F42F001024A602846F3609E6018
:1037500000F096F9BCE603F15C0003F15B0EC300D8
:1037600012E69A0902F13901C9003832A4E7BC42D5
:1037700054D0BC68626822F003025DE759F808394A
:10378000994540F0868010F0030F00F1FF30F5D12D
:103790007B6823EA04037B6064009C423FF6C7AE6B
:1037A000002C3FF4C4AE1C4240467FF43EAE6400A1
:1037B0001C4200F10400FAD037E68C468CE7B3F5E2
:1037C000AA7F15D8F30B03F1780003F1770EC3003D
:1037D000DAE54FF48051EDE67B689210012101FAA1
:1037E00002F213437B60624679E70123536029E7C5
:1037F00040F25452934222D8B30C03F17D0003F1FE
:103800007C0EC300C0E503F1100BAEE6542A29D8A4
:103810001A0B02F16F01C9006E324DE7204B196897
:1038200059441960B2E6CAF30B0000287FF4AEAE2B
:1038300008EB0B03BA6843F001035360EEE67F2008
:103840004FF47E734FF07E0E9EE504F1080128468A
:10385000009303F04DFE009B1968DFE601204FF056
:103860000009BCE6B2F5AA7F05D8DA0B02F17801AF
:10387000C900773220E740F254518A4205D89A0CA9
:1038800002F17D01C9007C3216E74FF47E717E2281
:1038900012E77B6880E7F00806F1080300E600BF46
:1038A000900C4020844641EA000313F003036DD1DD
:1038B000403A41D351F8043B40F8043B51F8043BF3
:1038C00040F8043B51F8043B40F8043B51F8043BFA
:1038D00040F8043B51F8043B40F8043B51F8043BEA
:1038E00040F8043B51F8043B40F8043B51F8043BDA
:1038F00040F8043B51F8043B40F8043B51F8043BCA
:1039000040F8043B51F8043B40F8043B51F8043BB9
:1039100040F8043B51F8043B40F8043B51F8043BA9
:1039200040F8043B51F8043B40F8043B51F8043B99
:1039300040F8043B403ABDD2303211D351F8043B39
:1039400040F8043B51F8043B40F8043B51F8043B79
:1039500040F8043B51F8043B40F8043B103AEDD2E8
:103960000C3205D351F8043B40F8043B043AF9D239
:10397000043208D0D2071CBF11F8013B00F8013B0C
:1039800001D30B8803806046704700BF082A13D319
:103990008B078DD010F003038AD0C3F10403D21A31
:1039A000DB071CBF11F8013B00F8013B80D331F865
:1039B000023B20F8023B7BE7043AD9D3013A11F8E5
:1039C000013B00F8013BF9D20B7803704B78437050
:1039D0008B7883706046704770B4860746D0541E5B
:1039E000002A41D0CAB2034602E014F1FF343BD3AF
:1039F00003F8012B9D07F8D1032C2ED9CDB245EA4F
:103A000005250F2C45EA054519D903F11002264674
:103A1000103E0F2E42F8105C42F80C5C42F8085C35
:103A200042F8045C02F11002F2D8A4F1100222F074
:103A30000F0204F00F041032032C13440DD91E465C
:103A40002246043A032A46F8045BFAD8221F22F0E1
:103A500003020432134404F003042CB1C9B21C4421
:103A600003F8011B9C42FBD170BC7047144603460F
:103A7000C2E700BF014803F0E3BF00BF300D4020A4
:103A8000014803F0DFBF00BF300D402038B5074CC0
:103A90000023054608462360FDF744FA431C00D086
:103AA00038BD2368002BFBD02B6038BD440D40206F
:103AB00000290CBF022200224FF4806300F000B8FE
:103AC0002DE9F043614C256883B004460F469046CB
:103AD0001E4615B1AB6B002B64D0B8F1020F06D0B7
:103AE000B8F1010F00F29F80002EC0F29C80636E3F
:103AF000D80734D52146284603F07CFB216B41B121
:103B000004F14003994202D0284603F0F1FC00235F
:103B10002363B4F90C300022A26162601A063AD421
:103B200023F44A6323F00303B8F1020FA3811DD0ED
:103B300001AB6A462146284603F086FFA389184355
:103B4000A081002E32D1009E3046FFF7EBFB0746E6
:103B500000286BD0A38943F08003A38128E0A389C8
:103B60009905C7D4A06D03F06BFFC3E70025616E14
:103B7000002604F1430243F002030120A660CE07B1
:103B8000A38122602261606101D498053ED5284658
:103B900003B0BDE8F0832169284603F0A9FCB4F91D
:103BA0000C30BDE7284603F07DFB96E7002FCBD015
:103BB000AB6B002B33D0009BB4F90C2027609E42E6
:103BC0001CBF42F40062A281B8F1010F04BF42F0B1
:103BD0000102A28192B212F00803276166610ED041
:103BE000D1071AD5656E7642002315F00105A6614E
:103BF000A36009D00025284603B0BDE8F083A36088
:103C0000656E15F00105F5D19305C0D4A06D03F0E4
:103C100019FF284603B0BDE8F083A660F0E7284608
:103C200003F040FBC7E74FF0FF35B0E7DDF8009049
:103C3000B14504D04846FFF775FB074620B9B4F9F3
:103C40000C304FF0FF3592E74E4683E70C004020E2
:103C50000EB4F0B59CB021AB0F4953F8042B01937F
:103C600005466FF00044086802954FF402774FF65E
:103C7000FF7602A90695ADF8147004940794ADF888
:103C8000166000F0EBF8029B00221A701CB0BDE831
:103C9000F04003B0704700BF0C00402080EA0102F2
:103CA000844612F0030F4FD111F0030F32D14DF8BB
:103CB000044D11F0040F51F8043B0BD0A3F1013275
:103CC0009A4312F0803F04BF4CF8043B51F8043B88
:103CD00016D100BF51F8044BA3F101329A4312F000
:103CE000803FA4F101320BD14CF8043BA24312F007
:103CF000803F04BF51F8043B4CF8044BEAD0234604
:103D00000CF8013B13F0FF0F4FEA3323F8D15DF8B5
:103D1000044B704711F0010F06D011F8012B0CF87D
:103D2000012B002A08BF704711F0020FBFD031F8F5
:103D3000022B12F0FF0F16BF2CF8022B8CF800207C
:103D400012F47F4FB3D1704711F8012B0CF8012BFF
:103D5000002AF9D1704700BF0000000000000000F9
:103D60000000000000000000000000000000000053
:103D70000000000000000000000000000000000043
:103D800090F800F06DE9024520F007016FF0000C9B
:103D900010F0070491F820F040F049804FF0000443
:103DA0006FF00700D1E9002391F840F000F108001E
:103DB00082FA4CF2A4FA8CF283FA4CF3A2FA8CF356
:103DC0004BBBD1E9022382FA4CF200F10800A4FABD
:103DD0008CF283FA4CF3A2FA8CF3E3B9D1E9042311
:103DE00082FA4CF200F10800A4FA8CF283FA4CF348
:103DF000A2FA8CF37BB9D1E9062301F1200182FA02
:103E00004CF200F10800A4FA8CF283FA4CF3A2FA07
:103E10008CF3002BC6D0002A04BF04301A4612BA15
:103E2000B2FA82F2FDE8024500EBD2007047D1E918
:103E3000002304F00305C4F100004FEAC50514F0A7
:103E4000040F91F840F00CFA05F562EA05021CBF78
:103E500063EA050362464FF00004A9E72DE9F04F3D
:103E6000C3B00C460B9192460F930C9003F0D6FD15
:103E700003681A931846FFF783FFA3891990190660
:103E800003D52369002B01F0038000230DF1C8093D
:103E90001393159314932793269318931B930993C5
:103EA000CDF89490C846169317939AF8003054466C
:103EB000E3B1252B02D119E0252B03D014F8013FE3
:103EC000002BF9D1A4EB0A0585B1269B279AC8F8E7
:103ED00000A001332A44072BC8F8045027922693E8
:103EE0007FDC08F10808099B2B4409932378002BF9
:103EF0007FD000231A468DF8773019460D939B46E4
:103F00004FF0FF3063780A9004F1010A0AF1010AC8
:103F1000A3F12000582800F2C183DFE810F0380236
:103F2000BF03BF034002BF03BF03BF03BF03BF0301
:103F3000BF0345020302BF035D006B02BF0386029D
:103F40009D039D039D039D039D039D039D039D0371
:103F50009D03BF03BF03BF03BF03BF03BF03BF0373
:103F6000BF03BF03BF0337035703BF035703BF0399
:103F7000BF03BF03BF039803BF03BF03AD03BF036A
:103F8000BF03BF03BF03BF035902BF03BF031E0329
:103F9000BF03BF03BF03BF03BF03BF03BF03BF0311
:103FA000BF03BF03C602DB025703570357038B024D
:103FB000DB02BF03BF039002BF039D02CC01B4022A
:103FC0000802BF03E101BF037E00BF03BF030D0270
:103FD0000D980F9340420D904BF0040B9AF800306F
:103FE00094E725AA0B990C9804F05AFB40B9C846EF
:103FF00079E7279B23B10C980B9925AA04F050FB75
:104000000B9B9B8913F0400F099B18BF4FF0FF33A8
:104010000993099843B0BDE8F08F1BF0200F11936E
:1040200040F0DD810F9A1BF0100F134640F06E85B3
:104030001BF0400F00F06A8514880432002501232C
:104040000F9200278DF877700A994A1C00F065825C
:104050002BF08002079254EA050240F064820029A6
:1040600040F03C84002B40F0D7841BF001030E93FA
:1040700000F0048642AE302306F8413D0A9B0E9ABA
:104080009342B8BF134608930023129317B1089BBD
:1040900001330893079B13F00203109302D0089B8F
:1040A00002330893079B13F0840540F00E830D9BA9
:1040B000089AA3EB020BBBF1000F40F30683BBF1A0
:1040C000100F279C269A29DD43462146A846102733
:1040D0000C9C0B9D06E0ABF1100BBBF1100F03F134
:1040E000080318DD0132B74826921031072A2791BC
:1040F00083E88100EFDD25AA2946204604F0D0FAA6
:1041000000287FF47DAFABF1100BBBF1100F2799A6
:10411000269A4B46E6DC45460C4698460132A94BAA
:1041200026925C44072A279488E8080800F39884BC
:104130009DF8777008F1080877B1269B01330134A8
:104140000DF177010122072B2794269388E80600BA
:1041500000F3DB8308F10808109B6BB1269B013349
:1041600002341EA90222072B2794269388E8060012
:1041700000F3D68308F10808802D00F015830A9B10
:104180000E9A9F1A002F36DD102F269B8E4D27DDAD
:1041900042462146B0464FF0100B2E460C9C0B9D1C
:1041A00004E0103F102F02F1080215DD0133103139
:1041B000072B2791269382E84008F2DD25AA29469D
:1041C000204604F06DFA00287FF41AAF103F102F3C
:1041D0002799269B4A46E9DC35460C4646469046DA
:1041E00001333C44072B2794269388E8A00000F372
:1041F000818308F10808079BDF0500F16882269B90
:104200000E99C8F8006001330C44072B2794C8F8B6
:104210000410269300F34D8308F10808079B5B0701
:104220003AD50D9B089A9D1A002D35DD102D269B41
:1042300020DD10260C9FDDF82CB004E0103D102D81
:1042400008F1080816DD01335E4A26931034072B67
:10425000279488E84400F1DD25AA5946384604F041
:104260001FFA00287FF4CCAE103D102D279C269B12
:10427000C846E8DC0133534A26932C44072B279485
:1042800088E8240008DD25AA0B990C9804F008FAA8
:1042900000287FF4B5AE279C099B0D9A08998A42A5
:1042A000ACBF9B185B180993002C40F00D830023D2
:1042B0002693C846F9E511931BF0200340F0E381F3
:1042C0001BF0100240F02E841BF0400300F02A8403
:1042D0000F9913460A4604320C880F920025B0E667
:1042E0000F9A1193166800248DF87740151D002E43
:1042F00000F0A7860A9A531C00F009862146304632
:1043000003F036FC002800F0E186831B0E930A942C
:104310000F95CDF81CB023EAE373089312949DF82F
:104320007770B3E69AF8003001222B21EEE54BF0CE
:10433000200B9AF80030E9E51193002A40F09587A8
:10434000224B18931BF0200F40F011810F9A1BF0A5
:10435000100F134640F0E1831BF0400F00F0DD83A7
:10436000043314880F9300251BF0010F00F00C811B
:1043700054EA050300F0088130239DF844208DF8AD
:1043800078308DF879204BF0020B022359E69AF829
:10439000003000297FF4BAAD01222021B6E54BF0B0
:1043A000010B9AF80030B1E50F9C23680D93184675
:1043B0000028234603F10403FFF60AAE0F939AF890
:1043C0000030A3E588994000989940006899400022
:1043D0004BF0100B1BF0200F11933FF423AE0F9DF9
:1043E000073525F0070303F10802D3E900450F92D2
:1043F000012326E69AF800302A2B0AF1010400F086
:104400002787A3F130000928A24600F2AD860023D9
:104410001C461AF8013B04EB840400EB4404A3F1AE
:1044200030000928F5D90A9472E54BF0800B9AF810
:1044300000306BE54BF0400B9AF8003066E59AF8D7
:1044400000306C2B03BF9AF801304BF0200B0AF1BF
:10445000010A4BF0100B59E5002A40F011871BF0C0
:10446000200F40F0F9841BF0100F40F0AC841BF0DB
:10447000400F00F0A8840F9A136804320F92BDF821
:1044800024201A8011E50F99B34B0C681893302241
:10449000782304318DF8793011934BF0020B0F9192
:1044A00000258DF878200223CBE50F9911930A6837
:1044B0008DF8A02000230A461F468DF8773004327D
:1044C00001230893CDF81CB00A9712970F920E9310
:1044D00028AEDFE51193002A40F0EA861BF0200F9A
:1044E0005DD11BF0100F40F008831BF0400F00F06F
:1044F00004830F99B1F900400431E51722462B4699
:104500000F91002A73F1000358DB0A999DF8777028
:104510004A1C4FF001037FF49BAD54EA050200F002
:10452000DF81CDF81CB0012B00F07B82022B40F024
:10453000068218984E46230904F00F0143EA0573DA
:104540002A091C461546435C06F8013D54EA05035A
:10455000F1D1A9EB06030E9390E51193002A40F0E8
:10456000A3867E4B18931BF0200F3FF4EFAE0F9DF8
:10457000073525F0070303F108021BF0010F0F9226
:10458000D3E900457FF4F4AE02235AE51193002AE3
:1045900040F086864BF0100B1BF0200FA1D00F9D32
:1045A000073525F00705D5E90023002A05F10801A4
:1045B0001D4673F100030F911446A6DA2D276442BD
:1045C00065EB45058DF8777001233DE51193002AD1
:1045D00040F062860F9D073525F0070303F10802BE
:1045E0000F921A6815925B681493149B159D23F023
:1045F0000044284621464FF0FF32594B04F01EFF7D
:10460000002840F04A83284621464FF0FF32544BA1
:1046100004F0F6FE002840F0408315A80DC8149958
:1046200004F0E4FE002840F030859DF877704D4E90
:104630004D4B2BF080000790119803220021089227
:104640000A914728D8BF1E460E9212911EE54BF0E4
:10465000080B9AF8003059E4A3F1300000231C46FF
:104660001AF8013B04EB840400EB4404A3F130008E
:104670000928F5D90D944BE44BF0100B11931BF066
:1046800020033FF41DAE0F9D073525F0070303F10E
:104690000802D3E900450F920023D2E41193002AC7
:1046A00040F0E785119A002A3FF4A3AC00230121D2
:1046B0001F4608918DF8A020CDF81CB08DF87730FA
:1046C0000A9312930E9128AEE4E4279C34E5119BE3
:1046D000652B40F3A78015A80DC8149904F07CFE43
:1046E000002800F05081269B204AC8F800200133A2
:1046F00001340122072B27942693C8F8042000F3E5
:104700006A8308F108081F9B139A279C934203DBD6
:10471000079BDD077FF582AD269B19991A9AC8F889
:10472000002001330C44072BC8F80410279426936B
:1047300000F39E8308F10808139B5E1E002E7FF78E
:104740006DAD102E269B0A4D40F3F58122461027B1
:10475000DDF830B00B9C13E068994000549940009C
:10476000FFFFEF7F48994000449940008499400042
:104770009899400008F10808103E102E40F3DA81A5
:1047800001331032072B2792269388E8A000F1DD31
:1047900025AA2146584603F083FF00287FF430AC59
:1047A000279A269BC846E7E70D9B089A9F1A002F79
:1047B0007FF7E5AC102F269BB64D27DD42462146FC
:1047C000B0464FF0100B2E460C9C0B9D04E0103FA2
:1047D000102F02F1080215DD01331031072B27914C
:1047E000269382E84008F2DD25AA2946204603F0F8
:1047F00057FF00287FF404AC103F102F2799269B09
:104800004A46E9DC35460C464646904601333C4470
:10481000072B2794269388E8A00000F3328208F142
:104820000808ACE4139B269F012B40F3FE8101375F
:1048300001340123072F27942697C8F80060C8F891
:10484000043000F3038208F10808199A1A9BC8F88B
:10485000003001371444072F27942697C8F8042006
:1048600000F3008208F1080815A80DC8149904F097
:10487000B3FD139B002840F00181013B0137013655
:104880001C44072F26972794C8F80060C8F8043006
:1048900000F3278108F108081B9AC8F804200137A3
:1048A000144421AB072F27942697C8F800307FF7D0
:1048B000B3AC25AA0B990C9803F0F2FE00287FF404
:1048C0009FAB279CC846A9E425AA0B990C9803F036
:1048D000E7FE00283FF4EBACFFF792BBDDF81CB01D
:1048E000012B00F03481022B25D1CDF81CB000241F
:1048F00000251EE625AA0B990C9803F0D1FE00288E
:104900007FF47EAB279CC84675E425AA0B990C98CA
:1049100003F0C6FE00287FF473AB279CC8461BE457
:1049200025AA0B990C9803F0BBFE00287FF468AB16
:10493000279CC84620E4CDF81CB000240025494639
:1049400000E03146E20842EA4572E80804F0070355
:1049500005461446303354EA050201F8013C01F1E2
:10496000FF36EED1079AD2077FF5F3AD302B3FF437
:10497000F0AD0239302306F8013CA9EB01030E9398
:104980000E46FFF77BBB1F99002940F32E82129B36
:10499000139A9342A8BF1346002B1F460DDD269B9A
:1049A000C8F8006001333C44072B2794C8F8047012
:1049B000269300F31F8308F10808129B002FA8BF5D
:1049C000DB1B002B1F4640F3D680102F269B314D5A
:1049D00040F3ED8142462146B0464FF0100B2E4683
:1049E0000C9C0B9D04E00832103F102F40F3DB813C
:1049F00001331031072B2791269382E84008F2DD1E
:104A000025AA2946204603F04BFE00287FF4F8AA89
:104A10002799269B4A46E7E70A9B0E934E46FFF7E7
:104A20002DBB002D08BF0A2CC0F08F804E462046BB
:104A300029460A22002304F03FFD303206F8012DFA
:104A40002046294600230A2204F036FD04460D467E
:104A500054EA0503EBD1A9EB06030E93FFF70EBB57
:104A600025AA0B990C9803F01BFE00287FF4C8AA16
:104A70009DF87770279CC846FFF75EBB5E1E002E30
:104A80007FF70AAF102E034D22DD22464FF0100BA8
:104A90000C9C06E098994000103E102E08F1080882
:104AA00015DD01371032072F2792269788E8200856
:104AB000F2DD25AA0B99204603F0F2FD00287FF4D1
:104AC0009FAA103E102E279A269FC846E9DC14465E
:104AD00001373444072F2794269788E860007FF732
:104AE000D9AE25AA0B990C9803F0DAFD00287FF4C3
:104AF00087AA279C269FC846CEE60F9A14681346BD
:104B00000433E5170F9322462B46FAE404321C685F
:104B10000F9201230025FFF794BA1C6804330F930A
:104B2000002521E40F990A4604320C680F920025F3
:104B3000FFF787BA144601333444072B2794269392
:104B400088E860007FF768ABB3E6DDF81CB0CDF80D
:104B50001CB042AE3034012306F8414D0E93FFF7EE
:104B60008DBA25AA0B990C9803F09AFD00287FF4C2
:104B700047AA279CC8461F9A139B9A4244DB079B6F
:104B8000D90741D4139B12989A1A1D1A9542A8BFAF
:104B90001546002D0EDD2699C8F804500131064453
:104BA0002C440729C8F800602794269100F33B8223
:104BB00008F10808002DACBF561B1646002E7FF7E3
:104BC0002DAB102E269BB04DB5DD22461027DDF80B
:104BD00030B00B9C04E008F10808103E102EA9DD4F
:104BE00001331032072B2792269388E8A000F2DDCC
:104BF00025AA2146584603F053FD00287FF400AA59
:104C0000279A269BC846E8E7269B19981A99C8F860
:104C1000001001330444072B2794C8F8040026939E
:104C200000F3F58108F10808ACE7079BDA073FF5C8
:104C3000FEAD013701340123072F27942697C8F8CA
:104C40000060C8F804307FF725AE4AE725AA0B9923
:104C50000C9803F025FD00287FF4D2A9279C269FFD
:104C6000C846F2E525AA0B990C9803F019FD002817
:104C70007FF4C6A9279C269FC846F5E54E46FFF758
:104C8000FDB925AA0B990C9803F00AFD00287FF4C2
:104C9000B7A9279CC846FFF772BA159C2246204642
:104CA000149C2346214604F0C9FB002840F086826C
:104CB0000A9B0133119B23F020030E9300F0E28145
:104CC000472B00F01E814BF480730793149B1F1E2B
:104CD000159B0893BBBF3B4603F1004700232D23E0
:104CE0001093119B662B00F0BB81462B00F0DF80F8
:104CF0000E9B089A452B0CBF0A9B0A9D23A820A94E
:104D000008BF5D1C049003911FA802213B4602903E
:104D1000019500910C9801F0A3FA119B672B0646B0
:104D200040F0E0811BF0010F00F046827419169AE2
:104D30000898179B394604F04FFB002840F0658126
:104D4000239BA34206D230215A1C23921970239B25
:104D50009C42F9D89B1B13930E9B472B00F0E980D4
:104D6000119B652B40F3CD81119B662B1F9B1293EA
:104D700000F09E81139B129A1946914200F38A819A
:104D80001BF0010F40F0138222EAE27308936723BD
:104D90000E921193109B002B40F0C4800A939DF853
:104DA0007770FFF773B935460C4646469046013397
:104DB0003C44072B2794269388E8A0003FF7D1AE08
:104DC00008F10808D7E60F9A136804320F92099A7F
:104DD0001A60FFF76AB825AA0B990C9803F060FCDB
:104DE00000287FF40DA9C8468DE4269B274AC8F801
:104DF0000020013301340122072B27942693C8F8A1
:104E0000042072DC08F1080829B9139B1BB9079B21
:104E1000D8077FF503AA269B19981A9AC8F800208C
:104E2000013302462244072B2792C8F80400269338
:104E300000F38D8108F108080029C0F265811399FB
:104E4000C8F8006001338C18072B27942693C8F804
:104E500004107FF7E1A92CE50F9A09991368CD1783
:104E60000846043229460F92C3E90001FFF71DB836
:104E700025AA0B990C9803F013FC00287FF4C0A816
:104E8000279CC84658E400BF989940008499400088
:104E900040210C98FEF756FA0B9A1060106100281A
:104EA00000F0F2810B9A40235361FEF7EEBF23A876
:104EB00020A90A9C049003911FA803210290089A3C
:104EC00001943B4600910C9801F0CAF9254606462C
:104ED000119B462B06EB05047FF429AF3378302B6A
:104EE00000F078811F9D2C4421E725AA0B990C988E
:104EF00003F0D6FB00287FF483A81F99279CC8469F
:104F000082E70A9B002B08BF01230A93DBE63046A9
:104F10000A94FEF735FF0F950E90CDF81CB00346AE
:104F2000FFF7F9B92D2700238DF877700A93FFF763
:104F3000AEB81F9B12931A46033304DB0A9B194633
:104F40009142BFF617AF119B023B11939DF844307D
:104F50008DF88430129B013B002B1F93BDBF129B29
:104F6000C3F101032D222B22092B8DF8852040F35C
:104F700016810DF193042046AB4D00E0104685FBF1
:104F80000312D917C1EBA20101EB8102A3EB42028C
:104F90003032092900F8012C0B4600F1FF32EDDC1C
:104FA00030330238D9B2844202F8011C40F26581E4
:104FB0000DF18600134601E013F8011B00F8011BF8
:104FC000A342F9D101339B1A0DF18602134421AAA1
:104FD0009B1A139A1B93012A13440E9340F31981D1
:104FE0000E9B199A13440E9323EAE373089300234C
:104FF0001293CFE625AA0B990C9803F051FB0028D9
:105000007EF4FEAF279CC846D7E42346A2E625AA35
:105010000B990C9803F044FB00287EF4F1AF1F9A23
:10502000279CC846AEE525AA0B990C9803F038FBDF
:1050300000287EF4E5AF1F9A139B279C9A1AC84656
:10504000B8E50A9B1296062B28BF06230A96374618
:1050500008930F95CDF81CB00E93744EFFF716B859
:1050600023A820A90A9D049003911FA80321029060
:10507000089A01953B4600910C9801F0F1F806461C
:1050800044192BE706230A931DE62D278DF8777028
:10509000FFF7CDBA199A139B1344129A0E93002A64
:1050A00040F3B08023EAE37308936723119371E61A
:1050B000002B40F3C3800A9A002A40F099801BF02D
:1050C000010F40F0958008930E9363E60A9B0893C6
:1050D0000E930A900F95CDF81CB012909DF8777042
:1050E000FEF7D4BF119B472B7FF420AE1BF0010FBE
:1050F0007FF4EEAE239B9B1B13930E9B472B3FF439
:1051000018AF1F9B129321E74F421031484D2FDA01
:105110001024DDF830B004E008F10808103F102F2B
:1051200026DD01331032072B27922693C8F8005052
:10513000C8F80440F0DD25AA0B99584603F0B0FAF0
:1051400000287EF45DAF279A269BC846E6E725AA8D
:105150000B990C9803F0A4FA00287EF451AF1F9924
:10516000279A269BC84667E600200A90FEF7D0BE25
:1051700001333A44072B88E8A0002792269308F1D0
:1051800008087FF75CAE25AA0B990C9803F088FA03
:1051900000287EF435AF279A269BC8464FE6303369
:1051A00030228DF887308DF8862022AB0FE7129BD6
:1051B000199A13440E9375E7239BCBE5149B1D4E60
:1051C000002BB6BF2D279DF877708DF877701A4B9E
:1051D000FFF72FBA169A0898179B394604F0FCF887
:1051E00000287FF47FAEC5F101051F952C449EE594
:1051F000129B199A13440A9A1A4422EAE2730E92F5
:105200000893C7E5129B0E9AC3F101031A44134693
:10521000D0E71BF0010312937FF4E2AE0E9B23EA6A
:10522000E3730893B6E500BF676666667C99400045
:1052300098994000509940004C9940000A9B13B93E
:105240001BF0010F02D0199B0133D4E701233AE789
:105250000F9D9AF80130286840EAE0700A902846CD
:105260000430A2460F90FEF751BE8DF87710FFF77D
:1052700067B88DF87710FFF715BA0DF18603A6E62B
:105280008DF87710FFF7EBB80C9A0C2313604FF0F2
:10529000FF330993FEF7BDBE8DF87710FFF79AB97B
:1052A0008DF87710FFF776B98DF87710FFF759B9B9
:1052B0008DF87710FFF712B92DE9F84F4B6E9C046B
:1052C00093462FD59368126853B30E46074602F1F2
:1052D000080919E920045FEA9A0817D0043D002460
:1052E00001E0A04510D0324655F8041F384602F0C0
:1052F0007BF8431C04F10104F3D10023CBF8083000
:10530000CBF80430BDE8F88FDBF808302AF0030A48
:10531000A3EB0A03CBF8083009F10809002BD8D118
:105320000020EAE702F0CAF90023CBF80830CBF8F6
:105330000430BDE8F88F00BF2DE9F04FADB01D4639
:105340008B4690460793069018B1836B002B00F0B4
:10535000F380DBF86430BBF90C00DF0781B202D4C4
:105360008E0540F1FC808C040AD4DBF8643040F4F4
:10537000005123F40053ABF80C10CBF8643089B221
:10538000080740F1B380DBF81030002B00F0AE804E
:1053900001F01A030A2B00F0B58000230DF170090B
:1053A0000B93119310930393CDF83C90CA46CDF81C
:1053B00010B098F800304446FBB1252B02D11CE018
:1053C000252B03D014F8013F002BF9D1A4EB0805DD
:1053D0009DB1109B119ACAF8008001332A44072B13
:1053E000CAF80450119210937ADD002A40F0B0847C
:1053F000039B10922B44CA4603932378002B00F0A2
:10540000E08300204FF000038DF8373004F10108ED
:1054100062780546064603464FF0FF3408F101085E
:10542000A2F12001582900F2DE82DFE811F021020A
:10543000DC02DC022902DC02DC02DC02DC02DC022F
:10544000DC0289029502DC02A200BD02DC029F019F
:10545000A401A401A401A401A401A401A401A40124
:10546000A401DC02DC02DC02DC02DC02DC02DC0285
:10547000DC02DC02DC02B201DC02DC02DC02DC0267
:10548000DC02DC02DC02DC02DC02DC029701DC0272
:10549000DC02DC02DC02DC029B01DC02DC025302E7
:1054A000DC02DC02DC02DC02DC02DC02DC02DC020C
:1054B000DC02DC025A021B02DC02DC02DC026E02AD
:1054C0001B02DC02DC027302DC02F501820109022C
:1054D000D702DC029A02DC02A700DC02DC022E0208
:1054E0000AF1080A039B2B44039386E75946069862
:1054F00000F0ACFD18BBBBF80C1001F01A030A2B2E
:105500007FF44BAFBBF90E30002BFFF646AFDBF854
:105510006430DB0705D48F0503D4DBF8580002F0B4
:1055200091FA2B4642465946069800F04DFD0390ED
:1055300003982DB0BDE8F08F01F0B4FE09E7DBF869
:105540006430D90704D4BBF80C309A0540F1AA8422
:105550004FF0FF33039303982DB0BDE8F08FDBF8D5
:10556000580002F06DFABBF90C0081B2FBE67642FE
:10557000079243F0040398F800204FE708969E0630
:1055800000F150840799DD060A4600F1EF835806C2
:1055900040F1EC830E8804310027012207914FF07F
:1055A00000018DF837100025611C00F0168123F0F2
:1055B0008001029156EA070140F01481002C40F06E
:1055C0005C83002A40F0B78313F00103059300F0D9
:1055D00057840DF1B00B30230BF8413D059BA342DE
:1055E000B8BF234601930DB101330193029B13F021
:1055F0000203099302D0019B02330193029B13F033
:1056000084030A9340F01782089B019A9D1A002D8B
:1056100040F31182102D40F39084109B119AC44ED8
:10562000D6461027A2461946069C07E001F1020C57
:105630000EF1080E0146103D102D11DD481C1032F0
:10564000072811928EE8C0001090EFDD002A40F08C
:10565000E481103D102D11464FF0010CCE46EDDCDB
:1056600054466146F2462A4407291192CAF800605E
:10567000CAF80450109100F3EC829DF837500AF1FB
:10568000080A481C002D40F0DE81099B002B00F029
:10569000F88102320EA902230728119210908AE89D
:1056A0000A0040F3EA81002A40F08C830A9B802B99
:1056B0004FF001001146CA4640F0E781089B019D6A
:1056C0005E1B002E40F3E181102E9A4D40F3508472
:1056D000D4461027A246069C07E001F1020E0CF109
:1056E000080C0146103E102E11DD481C1032072810
:1056F00011928CE8A0001090EFDD002A40F09D820E
:10570000103E102E4FF0010E1146CC46EDDC5446F3
:10571000E2463244BEF1070F11928AE86000CDF8EC
:1057200040E000F369830AF1080A0EF101007146B6
:10573000ABE1089613F0200240F08C8313F01001C7
:1057400040F01A8313F0400200F0168307980A46CF
:105750000146043106880791002720E7089643F0A8
:105760001003E7E7089643F0100308E743F08003CF
:1057700098F8002052E6A2F13001002618F8012B1B
:1057800006EB860601EB4606A2F130010929F5D9A0
:1057900046E60896002840F0088443F010039E0671
:1057A00000F14C83DD0600F1F382580640F1F082EF
:1057B000079DB5F900602A46F7170432304639468E
:1057C0000792002871F10002C0F25D83611C9DF810
:1057D00037504FF001027FF4EAAE56EA070100F0BD
:1057E0004D820293012A00F08C82022A40F05C82F2
:1057F0000B98CB46330906F00F0143EA07733A09C9
:105800001E461746435C0BF8013D56EA0703F1D1EB
:10581000A9EB0B030593E1E6002840F0C08399064D
:1058200000F16783DA0600F1F1805B0640F1EE805B
:10583000079A136804320792BDF80C201A80B8E565
:1058400007983D4A08960B9206687822302104306A
:105850008DF8392043F00203079000278DF83810A7
:1058600002229CE60896002899D08DF8375096E7DA
:1058700098F80020002D7FF4D1AD01202025CDE542
:1058800043F0010398F80020C8E50896002840F08E
:10589000938329490B919F0600F1E8820798DE0661
:1058A000014600F170825D0640F16D820431068888
:1058B00007910027D80740F1228256EA070100F03D
:1058C0001E8230218DF8392043F002038DF8381004
:1058D000022264E60896002840F06B8317490B917A
:1058E000D9E7079908960A688DF848204FF000001C
:1058F0000A468DF837000432012001900792059086
:105900000DF1480B0293002470E643F0400398F831
:10591000002083E598F800206C2A03BF98F8012046
:1059200043F0200308F1010843F0100376E500BFBF
:10593000A8994000B89940006899400054994000E7
:1059400007990E680A46002E02F10402FFF60FAE18
:10595000079298F8002061E598F8002001202B2597
:105960005CE507990896D1F800B04FF000028DF879
:1059700037200E1DBBF1000F00F0E582671C00F020
:10598000C482224600215846019302F0F1F8019B9F
:10599000002800F0E582A0EB0B0205920796029327
:1059A0009DF83750002419E698F800202A2A08F1BB
:1059B000010700F0E982A2F130010929B8464FF051
:1059C00000043FF62DAD18F8012B04EB840401EB25
:1059D0004404A2F130010929F5D921E543F020035F
:1059E00098F800201AE50896002840F0DB82002A8B
:1059F00000F0E78001218DF848204FF0000201916E
:105A00008DF8372005910DF1480B7BE7079A136855
:105A100004320792039A1A60CBE40FAA0499204635
:105A2000FFF74AFC002840F039811099119A01F1E2
:105A3000010CCE46FFE51099119A481C9DF837508D
:105A4000002D3FF422AE01320DF137050121072868
:105A500011921090CAF80050CAF8041040F308815F
:105A6000002A40F0BC81099B002B3FF41FAE0EAB17
:105A7000022208461C931D92CA4601460AF1080AF2
:105A800001300A9B802B3FF419AE059BE41A002CD1
:105A90002EDD102CB34D1EDDD6461026069FDDF8F8
:105AA00010A006E0881C0EF1080E1946103C102CC0
:105AB00010DD4B1C1032072B11928EE86000109302
:105AC000F0DD002A65D1103C102C4FF0010011468A
:105AD000CE46EEDCF246224407281192CAF8005066
:105AE000CAF80440109000F385800AF1080A0130DA
:105AF0000599CAF800B00A4407281192CAF80410A0
:105B0000109040F38280002A40F01881029B10928E
:105B1000580735D5089B01995C1A002C40F3E780A3
:105B2000CA46102C40F3188210998F4E069FDDF85C
:105B300010B0102506E0881C0AF1080A1946103C2E
:105B4000102C11DD4B1C1032072B1192CAF800608B
:105B5000CAF804501093EEDD42BB103C102C4FF0FD
:105B600001001146CA46EDDC224407281192CAF80A
:105B70000060CAF80440109051DD002A40F09B817B
:105B8000039B089A01998A42ACBF9B185B18039348
:105B90004EE00FAA51463846FFF78EFB002840F032
:105BA0003F811099119A481CCE467FE70FAA5946AB
:105BB0003846FFF781FB60B91099119A481CCA4614
:105BC000BDE7119BDDF810B0002B40F0D48100231D
:105BD0001093DBF8643013F0010FBBF80C3002D1E6
:105BE0009A0540F1DE805B063FF5B2AC03982DB01C
:105BF000BDE8F08F002A40F00681059A1D9201232E
:105C00001192CDF870B01093CA460AF1080A029BAF
:105C1000590704D5089B01995C1A002C81DC039B71
:105C2000089901988142ACBF5B181B18039372BBA3
:105C300000231093CA46FFF7BCBB0FAA0499204665
:105C4000FFF73AFB50BB1099119A01F1010ECC46B7
:105C500048E5002A40F040819DF83710002900F007
:105C60001B8101220DF1370110461D921C91CA467D
:105C700001460AF1080A013007E5029B012A00F0FB
:105C80009880022A0DD1029300260027B0E50FAAC2
:105C900004990698FFF710FB0028C9D0DDF810B072
:105CA00097E7029300260027494600E05946F2088C
:105CB00042EA4772F80806F00703074616463033F3
:105CC00056EA070201F8013C01F1FF3BEED1029ACE
:105CD000D6077FF59DAD302B3FF49AAD02393023C6
:105CE0000BF8013CA9EB010305938B4676E4039B7B
:105CF000089A8A42ACBF9B185B18039398E702226C
:105D00004DE4002F08BF0A2E52D3CB463046394609
:105D10000A22002303F0D0FB30320BF8012D30466D
:105D2000394600230A2203F0C7FB06460F4656EA0F
:105D30000703EBD16CE50594CB464FE40FAA049919
:105D40000698FFF7B9FA0028A8D1119ACA465EE76B
:105D50000FAA04990698FFF7AFFA00289ED1CA4609
:105D6000FFF7C0BBB8994000A899400004311668FD
:105D700007910122002712E40798014604310668C2
:105D8000079100270BE40E6804310791002791E585
:105D900007990E680A46F7170432079230463946CB
:105DA0000FE5DBF8580001F04DFEBBF80C301AE7A8
:105DB000029B02930DF1B00B303601230BF8416DBD
:105DC00005930BE40FAA04990698FFF775FA0028CB
:105DD0007FF464AF1099119A481CCA4651E60FAA85
:105DE00004990698FFF768FA00287FF457AF1099D6
:105DF000119A481CCA4648E4002A40F091800120CC
:105E00001146CA4641E60FAA04990698FFF754FACC
:105E100000287FF443AF1098119A0130CA4667E614
:105E2000D346D6E6079E073626F0070202F10801A0
:105E3000D2E9006707910122FFF7B1BB079E073641
:105E400026F00706D6E9000106F108020792064689
:105E50000F46B6E4079E073626F0070202F1080156
:105E6000D2E9006707910022FFF799BB079E07362A
:105E700026F0070101F108000790D1E9006719E554
:105E8000CB46FFF7ABBB2D25764267EB47078DF876
:105E900037500122FFF788BB099BB3B91146012097
:105EA000CA46F2E5DBF8580001F0CCFD4FF0FF33B5
:105EB0000393FFF750BB0FAA04990698FFF7FCF96C
:105EC00000287FF4EBAE119AA9E60EAB02221C93D8
:105ED0001D920120CA46D0E50FAA04990698FFF743
:105EE000EBF900287FF4DAAE1099119A481CCA46E3
:105EF000A4E5079A03991368CD170846043229468A
:105F00000792C3E90001FFF754BA58460796029377
:105F1000FDF736FF002405909DF83750FFF75EBB74
:105F20000FAA04990698FFF7C7F900287FF4B6AEC8
:105F30001099119A481CCA46A7E51099119A204E4B
:105F40000131FFF790BB062C28BF06240594079665
:105F50000194DFF870B0D5E41098194E013003E6D3
:105F600005949DF83750079602930446FFF736BB19
:105F70008646FFF7CEBB06980FAA5946FFF79CF955
:105F800000283FF424AE24E6079998F801200C6815
:105F9000043144EAE474B8460791FFF73FBA8DF83C
:105FA00037503CE48DF8375021E58DF83750FFF736
:105FB000F4BB8DF8375091E48DF8375069E400BF99
:105FC000A89940007C9940002DE9F0410C46ADF5C0
:105FD0008D6D8989666EE589199621F00201064664
:105FE000E069ADF80C1017464FF48061626AADF8B5
:105FF0000E5098461AAD0023079016A809920693F2
:10600000009504950291059101F016FD43463A462C
:1060100069463046FFF790F9051E07DB30466946B2
:1060200001F0E8F8002818BF4FF0FF35BDF80C303C
:106030005B0603D5A38943F04003A381169801F0C2
:10604000FDFC28460DF58D6DBDE8F08138B5304B6F
:106050001B6805460C4613B19A6B002A38D0B4F978
:106060000C2093B218070CD52069A8B113F00102D7
:106070001ED0636900225B42A361A260F0B10020E0
:1060800038BDD9063CD5580726D4206942F008030C
:10609000A3819BB20028E9D103F42072B2F5007FFE
:1060A000E4D02846214601F0FDFCA3892069DDE704
:1060B000990758BF6269A2600028E0D1B4F90C309A
:1060C0001A06DDD543F04003A3814FF0FF3038BD01
:1060D000184601F0E7F8C2E7216B51B104F1400323
:1060E000994204D0284601F003FAB4F90C200023A9
:1060F000236300232069636022F024022060C5E747
:1061000042F0400209232B604FF0FF30A28138BDDE
:106110000C004020024B13B1024800F005B8704754
:106120000000000015734000002301461A4618467F
:1061300002F0DABB02690B69934200F38D802DE90E
:10614000F04F03F1FF3801F1140700F1140B57F879
:1061500028205BF828304FEA880483B00132B3FB73
:10616000F2F90BEB0403009407EB040A0193B9F175
:10617000000F39D000252E46BC46DE465CF8044BA5
:10618000DEF80030A2B209FB0255220C2C0C09FBF0
:106190000242ADB2751B96B2C6EB134615FA83F3F5
:1061A00006EB23469BB243EA0643E2454FEA12451B
:1061B0004EF8043B4FEA2646E0D2009B5BF80330E2
:1061C00093B9019C231F9B450CD254F8043C4BB956
:1061D000A4F1080302E01A68043B1AB99B4508F1D0
:1061E000FF38F8D3C0F81080044601F073FF002890
:1061F0002EDB09F101095D46002357F8041B2868CE
:106200008AB29A1A0B0C12FA80F2C3EB104303EB1A
:10621000224392B242EA0342BA4545F8042B4FEAC0
:106220002343EAD25BF828200BEB880382B91A1FBC
:1062300093450BD253F8042C42B9083B02E01A688C
:10624000043B1AB99B4508F1FF38F8D3C4F8108015
:10625000484603B0BDE8F08F002070470000000002
:106260002DE9F04F016C9BB00446279E92469B4659
:1062700041B1426C4A60012393408B6001F052FDB2
:1062800000232364BBF1000F5D4635DB0023336040
:106290009D4BAB4315D0504659460022002303F0D6
:1062A0009BF8804600282DD0269A01231360289B56
:1062B000002B00F0BD809548186001381BB0BDE888
:1062C000F08F269A42F20F731360BAF1000F0DD1CE
:1062D000C5F3130555B9289B8D48002BEED000F16E
:1062E0000803289A13601BB0BDE8F08F289B8948EB
:1062F000002BE3D0C31CF4E701232BF000453360EF
:10630000AB46C5E718AA19AB0192009352465B460B
:10631000204601F07FFF2B0D814671D0CBF3130295
:1063200042F07F51189FCDF850805046A3F2FF36BF
:1063300041F440110022784B02F032FC6CA3D3E907
:10634000002302F0E1FD6CA3D3E9002302F02AFC54
:10635000CDE90201304602F071FD69A3D3E90023C3
:1063600002F0D2FD02460B46DDE9020102F01AFC02
:10637000CDE9040103F078F8002202900023DDE962
:10638000040103F033F8002840F07381029D162DBC
:1063900000F25D81614B03EBC503D3E90001524676
:1063A0005B4603F041F8002800F0C5816B1E0293A4
:1063B00000230E93BF1B7B1E069300F15481002324
:1063C0000893029B002BC0F24581069A0D9311465B
:1063D0001944002306910C93249B092B2AD8052BE2
:1063E00040F35B86043B24930025249B023B032B54
:1063F00000F24286DFE813F0D403C902DF03610430
:10640000189F199E3E4406F23243202B40F38E81A2
:10641000C3F1400306F212409D402AFA00F02843DF
:1064200002F0FCFC0123013EA1F1F871149381E715
:106430003B4843E7002161642046259101F04CFC74
:106440004FF0FF330A93259A0F93012304902064A1
:1064500024920B93199B002BC0F2D980029A0E2A2A
:1064600000F3D5802D4B03EBC203D3E90023CDE924
:106470000823259B002BC0F2BA83DDE9085650465D
:106480002A463346594602F069FE02F0EDFF804687
:1064900002F0D4FC2A46334602F036FD0B46024693
:1064A0005946504602F07CFB049D08F130032B70E6
:1064B0000A9B012B06460F4605F1010568D0002214
:1064C000184B02F021FD0022002306460F4602F081
:1064D00083FF002840F08880CDF82C904FF0000A10
:1064E000DFF840B00C94DDE9088928E0AFF30080C4
:1064F00061436F63A787D23FB3C8608B288AC63FCA
:10650000FB799F501344D33F0000F07F85994000F2
:10651000C8994000D49940000000F83F109A40000C
:10652000849940000000244002F0EEFC0022002389
:1065300006460F4602F050FF002840F0C183424655
:106540004B463046394602F009FE02F08DFF044604
:1065500002F074FC42464B4602F0D6FC02460B4663
:106560003046394602F01CFB04F1300E049E05F85B
:1065700001EBA5EB060E0A9EB645CDE90601524693
:106580005B46D1D1A046DDF82C900C9C06460F4608
:1065900032463B463046394602F004FB06460F467B
:1065A00002460B46DDE9080102F020FF48B93246F9
:1065B0003B46DDE9080102F00FFFA8B118F0010F1A
:1065C00012D015F8018C049A6B1E04E09A4200F078
:1065D000018413F8018DB8F1390F03F10105F5D0ED
:1065E00008F1010883F800804946204601F09AFB33
:1065F0000022029B2A70269A01331360289B002BED
:1066000000F09E8304981D601BB0BDE8F08F0B9ACC
:10661000002A3ED0249A012A40F311830A9B0C9A47
:106620005F1EBA42C0F28F83D71B0A9B002BC0F2B9
:106630008B84089D0A9B089A1A440892069A0121A5
:106640001A442046069201F007FC064624E0012386
:106650000E93AFE6089A029BD21A5B420C9300237A
:1066600008920D93B8E6C7F101030893002306933F
:10667000A7E6029D284602F0E1FB02460B46DDE953
:10668000040102F0A9FE00287FF480AE6B1E029385
:106690007CE60C9F089D0B9E002D0CDD06990029C1
:1066A0000B4608DDA942089AA8BF2B46D21AED1A5C
:1066B000CB1A089206930C9BD3B10B9B002B00F0D6
:1066C000B782002F10DD31463A46204601F060FCCB
:1066D0004A4601460646204601F0C8FB4946804628
:1066E000204601F01FFBC1460C9BDA1B40F0A18243
:1066F0000121204601F0B0FB0D9B002B80461CDDE4
:1067000001461A46204601F043FC249B012B80469B
:1067100040F3548200230C93D8F8103008EB830325
:10672000186901F049FBC0F1200010E0C3F1200519
:106730000AFA05F074E60E903CE6249B012B40F328
:10674000878200230C930D9B0120002BE4D1069A35
:10675000104410F01F0000F0A180C0F12003042BB2
:1067600040F39E84089BC0F11C0003440893134629
:10677000034405440693089B002B05DD49461A4651
:10678000204601F055FC8146069B002B05DD414665
:106790001A46204601F04CFC80460E9B002B40F030
:1067A00086800A9B002B40F366820B9B002B00F037
:1067B0009880002D05DD31462A46204601F038FC40
:1067C00006460C9B002B40F0378306960A9B049AE2
:1067D000DDF818B0013BD3180B930AF001030C93BA
:1067E0001746C24651464846FFF7A4FC31460546C7
:1067F000484601F06FFC5A460A905146204601F087
:1068000085FCC268804605F13003002A40F02B82E7
:1068100001464846089301F05DFC4146069020463B
:1068200001F080FA069A089B32B9249921B90C9A92
:10683000002A00F0EF83249A0A990029C0F29F826F
:1068400005D1249919B90C99002900F09882002AE1
:1068500000F306830B9A3B7007F101089742454607
:1068600000F00C83494600230A22204601F064FA16
:106870005E45814631464FF000034FF00A02204644
:1068800000F0EB8101F058FA5946064600230A222F
:10689000204601F051FA47468346A3E71C20089B97
:1068A00003440893069B03440544069363E741466B
:1068B000484601F00FFC0028BFF673AF029F49461F
:1068C00000230A222046013F029701F035FA0B9B74
:1068D0008146002B40F0B6830F9B002B40F3BF8313
:1068E0000A93DDF810B00A9F5D4602E001F024FA39
:1068F000814641464846FFF71DFC00F1300A05F885
:1069000001ABA5EB0B03BB424FF00A024FF00003B3
:1069100049462046EADB049B0A9A012AACBF9B1831
:1069200001331D464FF0000B49460122204601F07D
:106930007FFB4146814601F0CDFB002840F33D82BC
:1069400015F8012C04996B1E04E08B4200F0AE8117
:1069500013F8012D392A03F10105F6D001321A701E
:106960004146204601F0DEF9002E3FF43DAEBBF17A
:10697000000F05D0B34503D05946204601F0D2F9A7
:106980003146204601F0CEF92EE600230B93029B00
:10699000259A13440F930133012B1F461E460A9379
:1069A000B8BF01270021172F61640AD901220423EF
:1069B0005B0003F114008742114602F10102F7D295
:1069C0006164204601F088F90E2E049020643FF6A1
:1069D00041AD002D3FF43EAD02990029CDE910AB49
:1069E00040F30282B84B01F00F020D1103EBC2031A
:1069F000E906D3E9006740F1AE81B44B50465946F1
:106A0000D3E9082302F0AAFBCDE9120105F00F0536
:106A10004FF0030A8DB1DFF8B482EA0709D530469A
:106A20003946D8E9002302F06FFA0AF1010A064656
:106A30000F466D1008F10808EFD13B463246DDE9FC
:106A4000120102F08BFB074688460E9B43B10022E1
:106A50009F4B3846414602F0C9FC002840F0868230
:106A6000504602F0EBF93A46434602F04DFA994B94
:106A7000002202F097F80A9B0546A1F15076002B00
:106A800000F03E81029B15930A9B12930B9B002BF7
:106A900000F0FA81129A8C4B8F4903EBC20353E941
:106AA0000223002002F05AFB2A46334602F078F80F
:106AB00082468B463846414602F0D6FC054602F037
:106AC000BDF902460B463846414602F069F83035BA
:106AD0005FFA85F8049D06460F4685F80080024659
:106AE0000B4650465946013502F09EFC002854D111
:106AF00032463B460020764902F052F802460B46E9
:106B00005046594602F090FC002840F07082129ADC
:106B1000012A00F01181129B049ACDF84890134489
:106B200099460DE000206A4902F03AF852465B4669
:106B300002F05CFC002840F058824D4500F0FA80DD
:106B4000504659460022654B02F0DEF90022634BA5
:106B500082468B463046394602F0D6F90F46064645
:106B600002F082FC804602F069F902460B4630468C
:106B7000394602F015F808F130085FFA88F85246F5
:106B80005B4605F8018B06460F4602F02FFC3246A5
:106B90003B460028C6D0DDF84890159B029323E5BC
:106BA00000230B93259B002B40F3DC801F461E46E1
:106BB0000F930A93F6E601230B93F3E7BAF1000F64
:106BC0007FF4A8ADCBF31303002B7FF4BAAD2BF009
:106BD00000473F0D3F05002F00F00D82089B013359
:106BE0000893069B0133069301230C93ABE50A9BA4
:106BF000002B3FF742AC40F021820022384BDDE908
:106C0000080102F081F952465B4602F003FCDDF810
:106C100028804646002841D0259B049DDB430293F3
:106C20004146204601F07EF8002E3FF4DDACA7E699
:106C30000C9A4946204601F0ABF9814658E5149A72
:106C4000002A00F0878103F233430C9F089DF2E491
:106C5000BAF1000F7FF475ADB4E701F06DF8474667
:106C600006468346BEE501462046069301F05AF8E3
:106C70000122069BE0E5249B022B7FF796AD0A9B41
:106C8000002BC9D141460522204601F055F80146A6
:106C90008046484601F01EFA0028BDDD029A04999C
:106CA0003123013202920B704D1CB9E7029A013276
:106CB0000292049A3123137052E601230B9366E685
:106CC000DDF82C900C9C8FE4109A4000E89940006D
:106CD0000000F03F00001C400000E03F00002440A6
:106CE00000001440504602F0A9F83A46434602F02C
:106CF0000BF90022C14B01F055FF0546A1F150767A
:106D000041460022BE4B384601F04AFF2A46334630
:106D100082468B4602F088FB8046002840F01081B6
:106D20002A4606F100435046594602F05FFB18B16F
:106D3000464671E7DDF84890DDE910ABFFF78ABB06
:106D40000498FFF7BBBA0C9B0D9A0C97FB1A1A44D8
:106D50000D92002769E4DDE910234FF0020ACDE926
:106D6000122357E60021012361642046259300F099
:106D7000B3FF259B049020640A930F9329E6002A11
:106D8000D046CDF818B09A4611DD4946012220467A
:106D900001F04EF94146814601F09CF9002840F38C
:106DA0004681BAF1390F00F0068105F1310AB34688
:106DB00087F800A07D1C069ED2E504D11AF0010FD1
:106DC00001D0BDE5154615F8013C302B05F1FF3229
:106DD000F8D0C5E5049930220A70029A15F8018CA2
:106DE00001320292FFF7FCBB00F0BB80029B5D42C8
:106DF000844B05F00F0203EBC203D3E90023DDE966
:106E0000100102F081F82D110746884600F02C8110
:106E10007D4E4FF0020AEB0709D538464146D6E9C8
:106E2000002302F071F80AF1010A074688466D1046
:106E300006F10806EFD108E67168204600F04CFF25
:106E4000336902339A00054606F10C010C30FCF759
:106E500029FD29460122204601F0EAF80690B5E412
:106E6000392BCDF818B0D04600F0A58003F1010A07
:106E7000B34687F800A07D1C069E71E55A46D046B1
:106E8000B3469A4616464FE5129B5E4901EBC30195
:106E90002A46334651E9020102F036F8CDE91601DF
:106EA0003846414602F0E0FA054601F0C7FF0B46BE
:106EB00002464146384601F073FE129B0F46049984
:106EC0003035012B0D70064601F1010526D0129BCD
:106ED000049ADFF83CB1CDF8489013444FF0000A13
:106EE000994652465B463046394602F00DF80F4649
:106EF000064602F0B9FA804601F0A0FF08F130081A
:106F000002460B463046394601F04AFE05F8018B31
:106F10004D4506460F46E4D1DDF848903B4B002234
:106F2000DDE9160101F03EFE32463B4602F05EFA14
:106F3000002846D0159B029315F8018CFFF743BB40
:106F40004FF000084646A9E6089B0A9A9D1A0023BE
:106F5000FFF771BB189B0C9F089DC3F13603FFF729
:106F60006ABBDDE910784FF0020A6EE50A9B002B40
:106F70003FF4B8AE0F9B002B7FF7DEAE0022244B10
:106F80003846414601F0C0FF074688460AF1010035
:106F900001F054FF3A46434601F0B6FF0022174B7A
:106FA00001F000FE029A0F9B1293013A0546A1F1EF
:106FB000507615926AE53922B3463A70069E7D1CDA
:106FC000C0E4DDE916230020104901F0E9FD324656
:106FD0003B4602F029FA08B9AEE6154615F8013C21
:106FE000302B05F1FF32F8D0D7E5DDF84890159B3E
:106FF0000293FFF7E8BA0C97FFF7A5BB00001C400F
:1070000000001440109A4000E89940000000E03F62
:1070100000002440392BCDF818B0D046DDF828B058
:107020009A46C8D0BBF1000F3FF7BFAEBFE67FF472
:10703000BEAE1AF0010F3FF4BAAEB2E64FF0000850
:107040004646E9E5314600230A22204600F074FE58
:107050000F9B002B06460ADD0A93FFF7AABB249B71
:10706000022B23DC0F9B3BE44FF0020AEDE4249B50
:10707000022B1BDC0F9BEFE70025656429462046A9
:1070800000F02AFE4FF0FF330A930F930123049080
:10709000259520640B93FFF7DDB90125FFF7A5B90E
:1070A0003FF469ABC0F13C00FFF7F9BB0F9B0A93BB
:1070B000E5E500BFB1F90C309AB22DE9F0410D467B
:1070C000110780463AD46A6843F40063002AAB8112
:1070D0006FDDAC6A002C49D000229BB2D8F800606A
:1070E000C8F8002013F4805267D02A6D5F0705D5D9
:1070F00069682B6B521A0BB1EB6BD21A0023E9694A
:107100004046A047441C3CD0B5F90C302A692A609F
:1071100023F400630022AB81DB046A6047D4296B4F
:10712000C8F8006011B305F14003994202D040460F
:1071300000F0DEF900202863BDE8F0812E69AEB1D1
:107140002C682E6091070CBF6B690023A41BAB60F9
:107150000AE0234632466F6AE9694046B84700288C
:10716000A4EB0004064404DD002CF2DC0020BDE8A2
:10717000F081AB8943F04003AB814FF0FF30BDE8B5
:10718000F081D8F800401D2CF3D8194BE340DB43C5
:1071900013F00103EDD1B5F90C206B6022F400630C
:1071A0002969AB81DA042960B9D5002CB7D12865EB
:1071B000B5E7EA6B002A8CDCD8E70123E969404691
:1071C000A047431C024602D0AB89AC6A8EE7D8F8D0
:1071D0000030002BF8D01D2B01D0162B02D1C8F89F
:1071E0000060C3E7AB8943F04003AB81BDE8F081A9
:1071F0000100402038B50D46044608B1836BBBB191
:10720000B5F90C0088B16B6EDB0701D4810517D589
:1072100020462946FFF74EFF6B6EDA07044602D47C
:10722000AB899B0507D5204638BD0446204638BDAE
:1072300000F038F8E4E7A86D00F004FC204638BD03
:10724000A86D00F0FDFBE3E7014900F0AFBB00BF14
:10725000318A400010B5002304468181C281036059
:10726000436083604366036143618361194608227A
:107270005C30FCF7B1FB07480749084A084B20621D
:10728000E4616162A262E36204F15800BDE810406B
:1072900000F0D2BB198640003D8640007986400050
:1072A0009986400010B50446124800F0C9FBA26B55
:1072B000D2B904F53B731048C4F8E8320321C4F88E
:1072C000E022E063C4F8E41260680421FFF7C2FF23
:1072D00001220921A068FFF7BDFF02221221E06808
:1072E000FFF7B8FF0123A3630248BDE8104000F098
:1072F000A9BB00BF2C0D402049724000014800F09E
:107300009FBB00BF400D4020014800F09BBB00BF69
:10731000400D402038B50A4C0A4D641BA4100AD019
:1073200004F18043013B05EB8305013C55F804392A
:107330009847002CF9D1BDE8384002F05FBC00BF8F
:107340000C9C4000089C40002DE9F04782B080462C
:107350008946144600F054FB012836D04A4604F111
:107360005C0301A9404601F071FA421C064625D093
:10737000A8B39DF804E000250DF1040A09E0236894
:107380005A1C226083F800E00135B54227D215F877
:107390000AE0A368013B002BA360F0DAA769BB42B7
:1073A00071462246404602DBBEF10A0FE7D101F0EA
:1073B000F5F9431CE8D102B0BDE8F087A38943F09A
:1073C0004003A38102B0BDE8F08709F1FF33FE2B33
:1073D000C4D85FFA89FE06468DF804E0CBE748463C
:1073E00002B0BDE8F08700BF30B5536E13F0010F57
:1073F000B2F90C30144683B005469AB201D190051B
:107400001CD5900406D4626E43F4005342F400523B
:10741000A381626628462246FFF796FF636EDA076D
:10742000054602D4A3899B0502D5284603B030BD8A
:10743000A06D00F007FB284603B030BDA06D0191A0
:1074400000F0FEFAB4F90C3001999AB2D9E700BF06
:10745000F8B5244F0C460646FCF70CFBBB685D688C
:10746000C4F57E610F3125F00305294421F47F61C5
:1074700021F00F01A1F58054B4F5805F07DB0021F6
:107480003046FCF703FBBB682B44984204D03046DF
:10749000FCF7F6FA0020F8BD61423046FCF7F6FA38
:1074A00001300DD0104BBA6819682D1B45F001054D
:1074B0003046091B55601960FCF7E2FA0120F8BD5F
:1074C00000213046FCF7E2FABA68831A0F2BDEDDA2
:1074D000064C0549246843F00103001B5360086013
:1074E000D5E700BF38044020900C402040084020E1
:1074F000002944D02DE9F0410D468046FCF7BAFA48
:1075000055F8047C694927F00103A5F10804E21845
:107510008E685068B24220F003005ED0FE075060D3
:107520000BD455F8087CE41B01F1080EA5687545DD
:107530003B446DD0E768EF60BD6015186D68ED07DE
:107540003ED543F001026260E350B3F5007F17D2ED
:10755000DB08581C9A104D6851F83070A760012361
:10756000934001EBC0022B43083AE2604B6041F8C4
:107570003040FC604046BDE8F041FCF781BA7047FE
:107580005A0A042A52D89A0902F13907FF0002F177
:107590003805C819CA59083890424FD0516821F0AF
:1075A00003018B4232D292689042F7D1C368A06047
:1075B000E3609C60C4604046BDE8F041FCF760BAFF
:1075C00095683B4FBD42034440D0D068E86043F02B
:1075D000010285606260E350B7E7FF07034407D408
:1075E00055F8082CA41A1344A068E268C2609060A1
:1075F000304A126843F00100934260608C60B9D356
:107600002D4B40461968FFF723FFB3E71046CDE73F
:1076100011184968C90744D49168D268CA60034404
:1076200043F0010091606060E350A3E7142A16D88C
:1076300002F15C07FF0002F15B05AAE7AA10012333
:107640004D6893402B434B600346B0E743F0010283
:107650004C610C61E560A5606260E3508AE7542AE2
:1076600006D81A0B02F16F07FF0002F16E0590E7D2
:10767000B2F5AA7F06D8DA0B02F17807FF0002F113
:10768000770586E740F25450824206D89A0C02F100
:107690007D07FF0002F17C057BE74FF47E777E25B6
:1076A00077E743F001016160136063E7380440202D
:1076B0004004402044084020C00C40209368002B28
:1076C00073D02DE9F04F8B8983B00C4619070090D9
:1076D000164626D5226922B313F0020035682CD055
:1076E0004FF00009B04FC846B246B84543464A4637
:1076F00028BF3B460098B8F1000F50D0E169666A98
:10770000B047002858DDDAF808301B1A8144A8EB8E
:107710000008CAF80830002BE7D1002003B0BDE80C
:10772000F08F21460098FEF791FC002840F033814D
:10773000A389356813F00200D2D113F0010945D1B5
:107740004F46019637B39A05D4F8088040F18380FC
:107750004745C346C0F0AB8013F4906F40F0AC8057
:107760002068BA465A46494600F052FAA268236891
:10777000A2EB08025B44A2602360019A9368A3EB2A
:107780000A03D144A7EB0A079360002BC5D0A38955
:10779000002FD8D1D5F800906F680835D2E7D5F81A
:1077A0000090D5F8048008359FE7002070472146F7
:1077B0000098FFF71FFD70B3B4F90C3043F040039D
:1077C0004FF0FF30A38103B0BDE8F08F8146334610
:1077D0004E46A8469A464D464EB380B3206823696C
:1077E0006269B145CB4628BFB34698425F4604D98B
:1077F000A36813449B4500F3A68093454BDB1346D7
:10780000676AE16900982A46B847071ED4DDB9EBDC
:107810000709CCD00120DAF80830DB1B3D44F61B09
:10782000CAF80830002B3FF478AF002ED5D108F10C
:10783000080313E9600098460833002EF9D0324659
:107840000A21284600F094F9002800F0A1800130B8
:10785000A0EB0509C2E720682369984202D8636952
:107860009F425DD2B84528BFB8464246494600F01F
:10787000CFF9A3682268A3EB08034244A360226007
:107880000BB1C24679E721460098FFF7B3FC002808
:1078900092D1C24671E75A46294600F0B9F9A2686A
:1078A0002368A2EB0B025B44A2602360AFE7206871
:1078B000B846BA46BB4655E762692068216902EBC3
:1078C0004208A0EB010A08EBD8780AF101004FEA60
:1078D000680838444045424684BF804642465B05BE
:1078E00044D511460098FBF72DFD8346002855D05E
:1078F00052462169FBF7D6FFA38923F4906343F036
:107900008003A3810BEB0A00A8EB0A03C4F810B0B4
:10791000C4F814802060A360B846BA46BB4621E78D
:107920006FF00041B94228BF39464A4691FBF3F156
:107930000098666A03FB01F3E169B047B0F1000A01
:107940003FF71BAF38E71A462946019300F060F96C
:107950002268019B00981A4422602146FFF74AFCE6
:10796000019B00287FF428AF1F4650E7009800F0E5
:10797000ADFC83460028C5D1009D21692846FFF74C
:10798000B7FDB4F90C300C2223F080032A6015E710
:1079900006F1010922E74FF0FF30BFE6009A0C2301
:1079A0001360B4F90C3009E700FCFF7F2DE9F843C0
:1079B00010F538771FD0884606464FF000097D68DD
:1079C000BC68013D11D4A389012B05F1FF3508D90D
:1079D000B4F90E3001332146304602D0C04749EA9F
:1079E00000096B1C04F16804EDD13F68002FE6D15B
:1079F0004846BDE8F883B9464846BDE8F88300BF6D
:107A0000044B054A1B685B6B002B08BF134693F8B9
:107A1000280170470C0040204C084020044A054BC8
:107A20001268506B002808BF1846F030704700BF3E
:107A30000C0040204C084020704700BF704700BF3A
:107A4000704700BF704700BF70B50C46B1F90E100B
:107A5000002990B015461E4614DB01AA01F04AF831
:107A600000280FDB029A02F47042A2F50052B2FA2B
:107A700082F252094FF480634FF4006032602B6051
:107A800010B070BDA289002312F08000336004D0D2
:107A9000402218462A6010B070BD4FF480632B60FE
:107AA00010B070BD8A8992070B4606D501F14302DA
:107AB00001211A601A6159617047F0B583B001ABBA
:107AC0006A460C460646FFF7BFFF0099054630465A
:107AD000FBF738FCB4F90C30D8B1019A154F009976
:107AE000F76343F08003A3812060206161611AB9CC
:107AF0002B43A38103B0F0BD3046B4F90E1001F062
:107B00000DF8A0B1A38923F0030343F001031BB2D6
:107B1000EEE79A05EED423F0030304F1430243F0A9
:107B200002030121A381226022616161E2E7B4F9CD
:107B30000C30DDE74972400082B049B15AB16BB1F7
:107B400013780B601278101C18BF012002B0704728
:107B500001A9002AF3D1104602B070476FF001006E
:107B6000F4E700BF0000000000000000000000007B
:107B700001F0FF01102A2BDB10F0070F08D010F8DE
:107B8000013B013A8B422DD010F0070F42B3F6D1E2
:107B9000F0B441EA012141EA014122F007047FF0FB
:107BA00000070023F0E80256083C85EA010586EA52
:107BB000010685FA47F5A3FA87F586FA47F6A5FA8E
:107BC00087F68EB9EED1F0BC01F0FF0102F007029A
:107BD00032B110F8013B013A83EA010313B1F8D145
:107BE0000020704701387047002D06BF3546033826
:107BF000073815F0010F07D1013015F4807F02BF5F
:107C0000013015F4C03F0130F0BC0138704700BFAF
:107C10008842F0B50DD98B1898420AD28418002AF0
:107C200051D0224613F8014D02F8014D9942F9D185
:107C3000F0BD0F2A48D941EA00039B0746D100F165
:107C4000100401F11003154653F8106C44F8106C41
:107C500053F80C6C44F80C6C53F8086C44F8086C3E
:107C6000103D53F8046C44F8046C0F2D03F110031D
:107C700004F11004E8D8A2F1100323F00F0302F07E
:107C80000F0E1033BEF1030F1944034421D91E1FF8
:107C90000D467446043C55F8047B46F8047F032CDB
:107CA000F8D8AEF1040424F003040434214423443E
:107CB00002F0030262B1013B0A4411F8014B03F8E0
:107CC000014F8A42F9D1F0BD0346F3E70346F2E7DC
:107CD000F0BD7246EEE700BFC36C70B505460C46BA
:107CE0004BB153F8240080B1026843F824200023EC
:107CF0000361C36070BD2122042100F057FEE864D7
:107D000003460028EDD1002070BD012101FA04F6E0
:107D1000721D2846920000F049FE0028F3D044600E
:107D20008660E4E731B1C36C4A6853F8220008600A
:107D300043F82210704700BFF0B50C6983B00D46C0
:107D4000064601F1140E0027DEF8000081B202FBA6
:107D50000133010C180C02FB01019BB2013703EB4C
:107D60000143BC424EF8043B4FEA1143ECDC3BB10B
:107D7000AA68944207DA05EB8402013453612C614E
:107D8000284603B0F0BD6968019301313046FFF722
:107D9000A3FF2A69023205F10C01074692000C305C
:107DA000FBF780FDF26C6968019B52F821002860A6
:107DB00042F821503D46DEE7020C12040346B2B9F8
:107DC0000304102013F07F4F04BF1B02083013F090
:107DD000704F04BF1B01043013F0404F04BF9B00E1
:107DE0000230002B02DB5B0003D420207047002010
:107DF000E8E70130704700BF036813F0070201464F
:107E000007D0DA0721D4980721D49B080B60022001
:107E1000704798B298B1104613F0FF0F04BF1B0AC9
:107E200008301A0704BF1B0904309A0704BF9B08D7
:107E30000230DA0707D45B0804D1202070471B0CFE
:107E40001020E9E701300B607047002070475B08A5
:107E50000B600120704700BF10B50C460121FFF7F1
:107E60003BFF01224461026110BD00BF2DE9F04FCC
:107E70000C691569AC4283B08B46164604DA22467B
:107E8000B3462C460E461546DBF80830DBF80410E6
:107E900004EB05089845C8BF0131FFF71DFF00F14D
:107EA000140909EB880AD145009005D24B46002100
:107EB00043F8041B9A45FBD806F1140C0CEB850320
:107EC0000BF1140B9C450BEB840E4CD2CDF804A0A7
:107ED0009A46DCF80050AFB2EFB100214D465E4645
:107EE0000C4656F8042B286893B281B207FB0313A3
:107EF000120C010C234407FB021101EB13419BB24E
:107F000043EA0143B64545F8043B4FEA1144E8D83B
:107F10002C60DCF800502D0C1DD0D9F800304846FC
:107F20001C46594600220E88240C05FB06442244B8
:107F30009BB243EA024340F8043B51F8043B046817
:107F40001B0CA6B205FB036303EB12438E454FEAFD
:107F50001342E8D803600CF1040CE24509F104096E
:107F6000B7D8DDF804A0B8F1000F0BDD5AF8043CD7
:107F7000AAF1040A1BB105E05AF8043D13B9B8F19F
:107F80000108F9D10098C0F8108003B0BDE8F08F67
:107F900012F003032DE9F041144607462ED10D4699
:107FA000A4101CD0BE6C96B3E3074FF0000806D4B3
:107FB000641014D03068A8B10646E307F8D53246FD
:107FC00029463846FFF752FFB5B16A68FB6C64106A
:107FD00053F82210296043F822500546EAD128467A
:107FE000BDE8F081324631463846FFF73FFF30604A
:107FF000C0F800800646E0E70546D9E75A1E0B4D5B
:10800000002355F82220FFF797FE0546C8E7012117
:108010003846FFF761FE40F27121012200234161E1
:1080200002610646B8640360BEE700BFD89A40000C
:108030002DE9F84391460A698B684FEA691404EB0D
:10804000020808F101059D420E460746496804DD15
:108050005B009D4201F10101FADC3846FFF73CFE6E
:10806000002C00F1140306DD03EB8402002143F829
:10807000041B9A42FBD1346906F1140119F01F095F
:1080800001EB840E1DD0C9F1200C00220C6804FA0B
:1080900009F4144343F8044B51F8042B8E4522FA9B
:1080A0000CF2F3D81A600AB108F10205FB6C726891
:1080B000013D53F822100561316043F82260BDE8AC
:1080C000F883043B51F8042B43F8042F8E45F9D86C
:1080D000ECE700BF30B40B6905460069C01A0FD148
:1080E0009B001435143119442B4401E09D4207D202
:1080F00053F8044D51F8042D9442F7D002D30120D7
:1081000030BC70474FF0FF30FAE700BF2DE9F04177
:108110000F690E4611697F1A002F904617D189000A
:1081200006F1140502F1140E6B18714401E09D4232
:108130005CD253F8042D51F8044DA242F7D05ED220
:1081400033462C46464675469846012705E058DBDF
:1081500006F1140508F1140400277168FFF7BCFD4F
:10816000D8F810303669C76004EB830CA64605EBDF
:10817000860700F1140400235EF8041B55F8048BF5
:108180008AB213FA88F3090C9A1AC1EB184303EB6D
:10819000224392B242EA0342F44544F8042B4FEAE8
:1081A0002343E9D8AF4217D9A446AE465EF8042B64
:1081B00013FA82F3191401EB12419BB243EA014214
:1081C00077454CF8042B4FEA2143EFD8ED432F4479
:1081D00027F0030704373C44043C22B954F8043D1B
:1081E000013E002BFAD00661BDE8F0810021FFF7C7
:1081F00073FD0122002302614361BDE8F0817446F2
:10820000ABE7334606F1140402F1140516460127C4
:108210009846A2E72DE9F04182B001211C46C3F344
:108220000A571546089EFFF757FDC4F3130480460E
:108230000FB144F4801401941DB302A840F8085D06
:10824000FFF7DAFD002834D19DE80C00C8F81420AF
:10825000002B0CBF01210221C8F81830C8F81010FB
:10826000DFB908EB8103A0F2324030601869FFF7F4
:10827000A3FD099BC0EB41101860404602B0BDE869
:10828000F08101A8FFF7B8FD019BC8F81430012167
:108290002030C8F81010002FE3D0099BA7F2334715
:1082A0000744C0F1350037601860404602B0BDE8B1
:1082B000F0819DE80A00C0F1200203FA02F20A43AD
:1082C000C3400193C8F81420C2E700BF002900F0A2
:1082D00095802DE9F04F0D46164683B0804606F195
:1082E0000B07FBF7C7FB55F804EC162F2EF0030421
:1082F000A5F108093CD810221746BE423DD8944249
:1083000043DAC44B996809EB0400884200F0B4805A
:10831000436823F0010101444968C9074CD51EF0A8
:10832000010F00F09B8031464046FBF70BF80646F4
:1083300000283AD055F8043C23F001034B44A0F147
:1083400008029A4200F02181221F242A00F20781AC
:10835000132A00F2DB8003462A461168196051682F
:10836000596092689A6029464046FFF7C1F81CE0C0
:1083700027F00707002F3A46BFDA00260C233046C5
:10838000C8F8003003B0BDE8F08F2E46E31B0F2B7A
:108390001ED8D9F8043003F0010323434C44C9F834
:1083A0000430636843F0010363604046FBF768FBF9
:1083B000304603B0BDE8F08F23F00303E11891428B
:1083C0001FDBC36882682E46D3600C469A60DDE7E7
:1083D000D9F8042009EB070102F001024C4443F0F4
:1083E00001031743C9F804704B60636843F001034D
:1083F000083163604046FFF77BF8D6E71146FAF78D
:10840000A1BF1EF0010F8ED155F8081CA9EB010A7F
:10841000DAF8041021F003010B442344934225DBD6
:10842000C26881685646CA609160DAF80C1056F846
:10843000080F221F242AC160886000F29480132A4A
:108440006FD92968CAF808106968CAF80C101B2A85
:1084500000F2A28008350AF1100263E055F8083CEA
:10846000A9EB030ADAF8041021F003016318934220
:10847000FFF659AF5646D8E7416821F0030BA344F5
:1084800007F11000834556DA1EF0010F7FF44BAF61
:1084900055F8081CA9EB010ADAF8041021F00301D1
:1084A0008B445845E2DC5646DAF80C1056F8080FB3
:1084B000221F242AC160886000F28F80132A40F2B4
:1084C0008A802968CAF808106968CAF80C101B2A43
:1084D00000F28A8008350AF1100229681160696883
:1084E0005160A96891600AEB0701ABEB070242F00B
:1084F000010299604A60DAF8043003F001031F4377
:108500004046CAF80470FBF7BBFA51E72B680360DA
:108510006B6843601B2A2DD800F1080305F108029F
:108520001BE732462968116069685160A96891604B
:108530001C46D1462AE709EB0701ABEB070B4BF0D2
:10854000010299604A6055F8043C03F001031F439F
:10855000404645F8047CFBF793FA2E4628E7294667
:10856000FFF756FBFFE6294630461C46D146FFF78B
:108570004FFB0BE7AB688360EB68C360242A17D01E
:1085800000F1100305F11002E7E650F8043C23F077
:1085900003031C442E46F9E6A968CAF81010E968DE
:1085A000CAF81410242A0CD010350AF11802B9E7C1
:1085B0002B6903616B69436105F1180200F118032F
:1085C000CBE62A69CAF818206A69CAF81C2018354F
:1085D0000AF12002A6E732467FE72946304601939A
:1085E000FFF716FB019B7EE7A968CAF81010E9683F
:1085F000CAF81410242A03D010350AF118026CE7C7
:108600002A69CAF818206A69CAF81C2018350AF1C4
:10861000200262E73804402010B50C46B1F90E1074
:1086200000F0A4FA002803DB236D0344236510BD8A
:10863000A38923F48053A38110BD00BF2DE9F0412D
:108640001646B1F90C201F46D3050C46054607D542
:1086500000220223B1F90E1000F072FAB4F90C20D6
:10866000B4F90E1022F48052A2813B4632462846CD
:10867000BDE8F04100F022B910B50C46B1F90E107A
:1086800000F05EFAA389421C0EBF23F4805343F42A
:1086900080532065A38110BDB1F90E1000F0B6B96A
:1086A0002DE9F04F936883B09046002B70D082463E
:1086B0000C4617688D68086842E0A38913F4906F30
:1086C0002ED06569216905EB4505A0EB010B05EB93
:1086D000D5750BF101006D103044A8422A4684BFC5
:1086E00005462A465B0538D511465046FAF72AFE5C
:1086F00000283CD05A4621690190FBF7D3F8A289A3
:10870000019B22F4906242F08002A281A5EB0B0251
:1087100003EB0B00656123612060A2603546B34620
:108720005A464946FFF774FAD8F80830A26820681C
:10873000551B58449E1BA5602060C8F808603EB3D6
:108740007E683B460837002EFAD0AE42D3F8009040
:10875000AB46B2D23546B346E2E75046FFF7B6FD28
:1087600003460028D2D121695046FEF7C1FE0C23F2
:10877000CAF80030A389002243F040034FF0FF30D5
:10878000A381C8F80820C8F8042003B0BDE8F08F22
:108790000020C8F8040003B0BDE8F08FF8B50D461E
:1087A0001446064610B1836B002B4BD0B4F90C2055
:1087B000A369A36091B2080739D52369002B36D08D
:1087C000EDB289042F4615D522686169D31A8B4210
:1087D0001CDA0133A168501C0139A16020601570BA
:1087E00062699A421AD0A389DB0701D50A2D15D0F8
:1087F0003846F8BD616E42F4005221F40051A28166
:10880000226861666169D31A8B42E2DB21463046F9
:10881000FEF7F0FC40B922680123DBE72146304631
:10882000FEF7E8FC0028E3D04FF0FF37E0E72146F1
:108830003046FDF70BFC0028F6D1B4F90C20236973
:1088400091B2BDE7FEF72EFDB0E700BFF0B50646DA
:1088500085B01F4689B1104C104D2468646B002C04
:1088600008BF2C46D4F8E040A047431C03D10022A7
:108870008A233A60336005B0F0BD0C460649074ACA
:108880000968496B002908BF11462246D1F8E0402B
:1088900001A9A047E9E700BF0C0040204C08402098
:1088A00021B1FF2A04D80A7001207047084670479A
:1088B0008A2303604FF0FF30704700BF70B50D464C
:1088C000084C114606461A46284600232360F7F74F
:1088D000C3FC431C00D070BD2368002BFBD0336069
:1088E00070BD00BF440D40202DE9F8432C4D0646D5
:1088F000286898460F469146FFF7A2F8294B1C6856
:10890000D4F84831002B3ED05A681F2A1CDC02F1F3
:10891000010E76B103EB82010124C1F88890D3F8EF
:10892000880194402043022EC3F88801C1F80881D1
:1089300023D00232C3F804E0286843F82270FFF71E
:1089400081F80020BDE8F883174B0BB34FF4C870D3
:10895000FAF7E8FC0346D8B1D4F8482102600021B8
:1089600041600A46C4F848014FF0010EC0F8881172
:10897000C0F88C11002EDCD0CCE7D3F88C110C435E
:10898000C3F88C41D5E704F5A673C4F84831BBE7BA
:108990002868FFF757F84FF0FF30BDE8F88300BFB5
:1089A00048084020409940002533400010B502FBA4
:1089B00001F1FAF7C7FC0446D8B150F8042C22F0B4
:1089C0000302043A242A18D8132A14D900231B2A94
:1089D0000360436016D9242A8360C36011BF00F18D
:1089E00010020361436100F1180200231360536019
:1089F0009360204610BD0246F7E70021FAF7ECFF2E
:108A0000204610BD00F10802EFE700BF38B5074C63
:108A10000023054608462360F8F7A0FA431C00D05F
:108A200038BD2368002BFBD02B6038BD440D40209F
:108A300070B559B105460C4610B1836B002B3CD084
:108A4000636ED80705D5B4F90C302BB90026304633
:108A500070BDA38999053CD521462846FEF72AFB1F
:108A6000E36A064633B1E169284698470028B8BF53
:108A70004FF0FF36A3891A0622D4216B41B104F1CD
:108A80004003994202D02846FEF732FD00232363BB
:108A9000616C21B12846FEF72BFD00236364FEF7CD
:108AA0002DFC636E0022DB07A2810ED5A06DFEF7C0
:108AB000C5FFFEF729FC304670BDFEF7F3FBBFE7AC
:108AC00021692846FEF714FDD7E7A06DFEF7BAFF2F
:108AD000ECE7A06DFEF7B4FFB4F90C30002BBBD16E
:108AE000666E16F00106B1D1A06DFEF7ABFF304601
:108AF00070BD00BF38B50B46074C054611461846F9
:108B000000232360F8F72DFA431C00D038BD2368FA
:108B1000002BFBD02B6038BD440D402038B5074CEE
:108B20000023054608462360F8F720FA431C00D0CE
:108B300038BD2368002BFBD02B6038BD440D40208E
:108B400070B50D46084C114606461A4628460023C5
:108B50002360F8F70DFA431C00D070BD2368002B8A
:108B6000FBD0336070BD00BF440D402070B50D4692
:108B7000084C114606461A46284600232360F7F79C
:108B80004DFB431C00D070BD2368002BFBD033602D
:108B900070BD00BF440D402081F0004102E000BFE5
:108BA00083F0004330B54FEA41044FEA430594EAAD
:108BB000050F08BF90EA020F1FBF54EA000C55EAE8
:108BC000020C7FEA645C7FEA655C00F0E2804FEAB9
:108BD0005454D4EB5555B8BF6D420CDD2C4480EA9B
:108BE000020281EA030382EA000083EA010180EACB
:108BF000020281EA0303362D88BF30BD11F0004F19
:108C00004FEA01314FF4801C4CEA113102D040424E
:108C100061EB410113F0004F4FEA03334CEA133389
:108C200002D0524263EB430394EA050F00F0A780A1
:108C3000A4F10104D5F1200E0DDB02FA0EFC22FA9C
:108C400005F2801841F1000103FA0EF2801843FA90
:108C500005F359410EE0A5F120050EF1200E012A81
:108C600003FA0EFC28BF4CF0020C43FA05F3C018BF
:108C700051EBE37101F0004507D54FF0000EDCF138
:108C8000000C7EEB00006EEB0101B1F5801F1BD3E1
:108C9000B1F5001F0CD349085FEA30004FEA3C0CE5
:108CA00004F101044FEA445212F5800F80F09A80DB
:108CB000BCF1004F08BF5FEA500C50F1000041EBDF
:108CC000045141EA050130BD5FEA4C0C404141EBE3
:108CD000010111F4801FA4F10104E9D191F0000F0A
:108CE00004BF01460020B1FA81F308BF2033A3F18D
:108CF0000B03B3F120020CDA0C3208DD02F1140C84
:108D0000C2F10C0201FA0CF021FA02F10CE002F1BE
:108D10001402D8BFC2F1200C01FA02F120FA0CFCB7
:108D2000DCBF41EA0C019040E41AA2BF01EB045100
:108D3000294330BD6FEA04041F3C1CDA0C340EDCFE
:108D400004F11404C4F1200220FA04F001FA02F341
:108D500040EA030021FA04F345EA030130BDC4F1FF
:108D60000C04C4F1200220FA02F001FA04F340EAF4
:108D70000300294630BD21FA04F0294630BD94F0A5
:108D8000000F83F4801306BF81F480110134013D8C
:108D90004EE77FEA645C18BF7FEA655C29D094EAFD
:108DA000050F08BF90EA020F05D054EA000C04BF7B
:108DB0001946104630BD91EA030F1EBF0021002066
:108DC00030BD5FEA545C05D14000494128BF41F005
:108DD000004130BD14F580043CBF01F5801130BD69
:108DE00001F0004545F0FE4141F470014FF00000F4
:108DF00030BD7FEA645C1ABF194610467FEA655CA5
:108E00001CBF0B46024650EA013406BF52EA033546
:108E100091EA030F41F4002130BD00BF90F0000F34
:108E200004BF0021704730B54FF4806404F1320470
:108E30004FF000054FF0000150E700BF90F0000F29
:108E400004BF0021704730B54FF4806404F1320450
:108E500010F0004548BF40424FF000013EE700BF20
:108E600042004FEAE2014FEA31014FEA02701FBFB0
:108E700012F07F4393F07F4F81F06051704792F082
:108E8000000F14BF93F07F4F704730B54FF46074FC
:108E900001F0004521F0004120E700BF50EA010247
:108EA00008BF704730B54FF000050AE050EA0102F4
:108EB00008BF704730B511F0004502D5404261EB64
:108EC00041014FF4806404F132045FEA915C3FF4A5
:108ED000DCAE4FF003025FEADC0C18BF03325FEA3E
:108EE000DC0C18BF033202EBDC02C2F1200300FAF3
:108EF00003FC20FA02F001FA03FE40EA0E0021FA18
:108F000002F11444C1E600BF70B54FF0FF0C4CF401
:108F1000E06C1CEA11541DBF1CEA135594EA0C0FB7
:108F200095EA0C0F00F0DEF82C4481EA030621EAF2
:108F30004C5123EA4C5350EA013518BF52EA03352D
:108F400041F4801143F4801338D0A0FB02CE4FF0DF
:108F50000005E1FB02E506F00042E0FB03E54FF00F
:108F60000006E1FB03569CF0000F18BF4EF0010E07
:108F7000A4F1FF04B6F5007F64F5407404D25FEA03
:108F80004E0E6D4146EB060642EAC62141EA5551B6
:108F90004FEAC52040EA5E504FEACE2EB4F1FD0CF8
:108FA00088BFBCF5E06F1ED8BEF1004F08BF5FEA76
:108FB000500E50F1000041EB045170BD06F0004628
:108FC00046EA010140EA020081EA0301B4EB5C04D5
:108FD000C2BFD4EB0C0541EA045170BD41F48011CD
:108FE0004FF0000E013C00F3AB8014F1360FDEBFF2
:108FF000002001F0004170BDC4F10004203C35DACE
:109000000C341BDC04F11404C4F1200500FA05F350
:1090100020FA04F001FA05F240EA020001F00042F1
:1090200021F0004110EBD37021FA04F642EB060167
:109030005EEA430E08BF20EAD37070BDC4F10C0491
:10904000C4F1200500FA04F320FA05F001FA04F255
:1090500040EA020001F0004110EBD37041F1000141
:109060005EEA430E08BF20EAD37070BDC4F120054C
:1090700000FA05F24EEA020E20FA04F301FA05F2B4
:1090800043EA020321FA04F001F0004121FA04F25C
:1090900020EA020000EBD3705EEA430E08BF20EA2C
:1090A000D37070BD94F0000F0FD101F00046400066
:1090B00041EB010111F4801F08BF013CF7D041EAE8
:1090C000060195F0000F18BF704703F000465200EC
:1090D00043EB030313F4801F08BF013DF7D043EABD
:1090E0000603704794EA0C0F0CEA135518BF95EA73
:1090F0000C0F0CD050EA410618BF52EA4306D1D1FA
:1091000081EA030101F000414FF0000070BD50EA18
:10911000410606BF1046194652EA430619D094EAA2
:109120000C0F02D150EA013613D195EA0C0F05D18C
:1091300052EA03361CBF104619460AD181EA0301E0
:1091400001F0004141F0FE4141F470014FF0000098
:1091500070BD41F0FE4141F4780170BD70B54FF033
:10916000FF0C4CF4E06C1CEA11541DBF1CEA1355B3
:1091700094EA0C0F95EA0C0F00F0A7F8A4EB050495
:1091800081EA030E52EA03354FEA013100F088808C
:109190004FEA03334FF0805545EA131343EA126355
:1091A0004FEA022245EA111545EA10654FEA00260A
:1091B0000EF000419D4208BF964244F1FD0404F5C3
:1091C000407402D25B084FEA3202B61A65EB03051F
:1091D0005B084FEA32024FF480104FF4002CB6EBDC
:1091E000020E75EB030E22BFB61A754640EA0C005C
:1091F0005B084FEA3202B6EB020E75EB030E22BF9C
:10920000B61A754640EA5C005B084FEA3202B6EBDC
:10921000020E75EB030E22BFB61A754640EA9C009B
:109220005B084FEA3202B6EB020E75EB030E22BF6B
:10923000B61A754640EADC0055EA060E18D04FEA29
:10924000051545EA16754FEA06164FEAC30343EAC9
:1092500052734FEAC2025FEA1C1CC0D111F4801F96
:109260000BD141EA00014FF000004FF0004CB6E78F
:1092700011F4801F04BF01430020B4F1FD0C88BF2E
:10928000BCF5E06F3FF6AFAEB5EB030C04BFB6EB39
:10929000020C5FEA500C50F1000041EB045170BD2C
:1092A0000EF0004E4EEA113114EB5C04C2BFD4EB59
:1092B0000C0541EA045170BD41F480114FF0000EDD
:1092C000013C90E645EA060E8DE60CEA135594EA59
:1092D0000C0F08BF95EA0C0F3FF43BAF94EA0C0F5C
:1092E0000AD150EA01347FF434AF95EA0C0F7FF4D1
:1092F00025AF104619462CE795EA0C0F06D152EA25
:1093000003353FF4FDAE1046194622E750EA410608
:1093100018BF52EA43067FF4C5AE50EA41047FF419
:109320000DAF52EA43057FF4EBAE12E74FF0FF3C7E
:1093300006E000BF4FF0010C02E000BF4FF0010C4F
:109340004DF804CD4FEA410C7FEA6C5C4FEA430CC8
:1093500018BF7FEA6C5C1BD001B050EA410C0CBF17
:1093600052EA430C91EA030F02BF90EA020F002079
:10937000704710F1000F91EA030F58BF994208BFE0
:1093800090422CBFD8176FEAE37040F0010070479D
:109390004FEA410C7FEA6C5C02D150EA013C07D1F4
:1093A0004FEA430C7FEA6C5CD6D152EA033CD3D03F
:1093B0005DF8040B704700BF8446104662468C4639
:1093C0001946634600E000BF01B5FFF7B7FF00286C
:1093D00048BF10F1000F01BD4DF808EDFFF7F4FF95
:1093E0000CBF012000205DF808FB00BF4DF808ED20
:1093F000FFF7EAFF34BF012000205DF808FB00BF43
:109400004DF808EDFFF7E0FF94BF012000205DF864
:1094100008FB00BF4DF808EDFFF7CEFF94BF012019
:1094200000205DF808FB00BF4DF808EDFFF7C4FF12
:1094300034BF012000205DF808FB00BF4FEA410C5B
:109440007FEA6C5C02D150EA013C0AD14FEA430C3E
:109450007FEA6C5C02D152EA033C02D14FF000007B
:1094600070474FF0010070474FEA410212F50012B9
:1094700015D211D56FF47873B3EB625212D94FEA5B
:10948000C12343F0004343EA505311F0004F23FA45
:1094900002F018BF404270474FF00000704750EA9A
:1094A000013005D111F0004008BF6FF00040704757
:1094B0004FF00000704700BF53B94AB9002908BFF8
:1094C00000281CBF4FF0FF314FF0FF3000F07AB999
:1094D000ADF1080C6DE904CE00F006F8DDF804E00B
:1094E000DDE9022304B070472DE9F0478C460D46B4
:1094F0000446089E002B51D18A4217466DD9B2FA14
:1095000082FEBEF1000F0BD0CEF1200C01FA0EF559
:1095100020FA0CFC02FA0EF74CEA050C00FA0EF4E5
:109520004FEA174A250CBCFBFAF81FFA87F90AFB29
:1095300018CC45EA0C4508FB09F3AB420AD9ED19F2
:1095400008F1FF3280F02381AB4240F22081A8F184
:1095500002083D44ED1AA4B2B5FBFAF00AFB10551F
:1095600044EA054400FB09F9A14509D9E41900F1D1
:10957000FF3380F00A81A14540F2078102383C4464
:10958000A4EB090440EA08400021002E61D024FA2F
:109590000EF4002334607360BDE8F0878B4207D976
:1095A000002E54D0002186E821000846BDE8F0874F
:1095B000B3FA83F1002940F08E80AB4202D382429D
:1095C00000F2FA80841A65EB03050120AC46002EF8
:1095D0003FD086E81010BDE8F08712B90127B7FB2D
:1095E000F2F7B7FA87FEBEF1000F34D1EB1B3A0C4D
:1095F0001FFA87FC0121B3FBF2F8250C02FB18339C
:1096000045EA03450CFB08F3AB4207D9ED1908F115
:10961000FF3002D2AB4200F2D1808046ED1AA3B2F5
:10962000B5FBF2F002FB105543EA05440CFB00FCCD
:10963000A44507D9E41900F1FF3302D2A44500F292
:10964000B8801846A4EB0C0440EA08409DE7314678
:109650003046BDE8F087CEF1200405FA0EF307FA94
:109660000EF720FA04F83A0C25FA04F448EA030845
:10967000B4FBF2F14FEA184502FB11441FFA87FCD4
:1096800045EA044501FB0CF3AB4200FA0EF409D99C
:10969000ED1901F1FF3080F08A80AB4240F2878003
:1096A00002393D44EB1A1FFA88F5B3FBF2F002FBD6
:1096B000103345EA034500FB0CF3AB4207D9ED1923
:1096C00000F1FF386FD2AB426DD902383D44EB1A3E
:1096D00040EA01418FE7C1F1200722FA07F88B40E9
:1096E00005FA01F448EA030320FA07FE4FEA134C97
:1096F000FD404EEA040EB5FBFCF94FEA1E440CFB9C
:1097000019551FFA83F844EA054509FB08F4AC42F1
:1097100002FA01F200FA01FA08D9ED1809F1FF3056
:1097200043D2AC4241D9A9F102091D442D1B1FFAB5
:109730008EFEB5FBFCF00CFB10554EEA054400FB19
:1097400008F8A04507D9E41800F1FF3529D2A04553
:1097500027D902381C4440EA0940A4EB0804A0FBC6
:1097600002894C45C6464D4615D312D056B1BAEBC8
:109770000E0364EB050404FA07F7CB401F43CC400B
:10978000376074600021BDE8F0871846F8E690461F
:10979000E0E6C245EAD2B8EB020E69EB03050138F8
:1097A000E4E72846D7E7404691E78146BEE7014611
:1097B00078E702383C4445E7084608E7A8F1020884
:1097C0003D442BE7704700BF09256309257509252E
:1097D000750925750D0A000049444C45000000003C
:1097E000546D725100000000546D72205376630076
:1097F000627574315F63616C6C6261636B200A0037
:109800006275745F63616C6C6261636B200A000057
:1098100073656D616661726F207478200A000000C4
:109820002D2D204672656572746F73204578616DC9
:10983000706C65202D2D0A0D0000000053414D4530
:1098400037302D58504C44002D2D2025730A0D0023
:1098500032313A33323A353700000000417072201D
:1098600020372032303138002D2D20436F6D706944
:109870006C65643A202573202573202D2D0A0D0078
:109880004D6F6E69746F72004661696C6564207417
:109890006F20637265617465204D6F6E69746F72BD
:1098A000207461736B0D0A004C6564004661696C3D
:1098B000656420746F2063726561746520746573DC
:1098C00074206C6564207461736B0D0A00000000E5
:1098D0004C656431000000004C65643200000000FB
:1098E0004C6564330000000066616C686120656D42
:1098F000206372696172206F2073656D61666F729B
:109900006F200A0070726F626C656D61206E6F204F
:109910006C6564200A0000002D2D2D207461736B8E
:109920002023232025750000737461636B206F76FC
:109930006572666C6F772025782025730D0A00000C
:1099400010004020494E4600696E66004E414E00B0
:109950006E616E003031323334353637383941423A
:109960004344454600000000303132333435363749
:10997000383961626364656600000000286E756CAA
:109980006C29000030000000202020202020202012
:109990002020202020202020303030303030303047
:1099A0003030303030303030202020202020202037
:1099B0002020202020202020303030303030303027
:1099C0003030303030303030496E66696E697479CD
:1099D000000000004E614E0043000000504F53490C
:1099E000580000002E0000000080E03779C341439A
:1099F000176E05B5B5B89346F5F93FE9034F384DF5
:109A0000321D30F94877825A3CBF737FDD4F1575A0
:109A1000000000000000F03F0000000000002440B3
:109A200000000000000059400000000000408F408E
:109A3000000000000088C34000000000006AF840F9
:109A40000000000080842E4100000000D01263411D
:109A50000000000084D797410000000065CDCD4193
:109A6000000000205FA00242000000E87648374274
:109A7000000000A2941A6D42000040E59C30A24212
:109A80000000901EC4BCD64200003426F56B0C4387
:109A90000080E03779C3414300A0D885573476432E
:109AA00000C84E676DC1AB43003D9160E458E1438F
:109AB000408CB5781DAF154450EFE2D6E41A4B4404
:109AC00092D54D06CFF08044F64AE1C7022DB54449
:109AD000B49DD9794378EA440500000019000000DC
:109AE0007D00000000202020202020202020282889
:109AF000282828202020202020202020202020204E
:109B0000202020202088101010101010101010108D
:109B100010101010100404040404040404040410BD
:109B2000101010101010414141414141010101014B
:109B30000101010101010101010101010101010115
:109B40001010101010104242424242420202020221
:109B500002020202020202020202020202020202E5
:109B60001010101020000000000000000000000095
:109B700000000000000000000000000000000000E5
:109B800000000000000000000000000000000000D5
:109B900000000000000000000000000000000000C5
:109BA00000000000000000000000000000000000B5
:109BB00000000000000000000000000000000000A5
:109BC0000000000000000000000000000000000095
:109BD0000000000000000000000000000000000085
:109BE0000000000000000000F8B500BFF8BC08BC91
:109BF0009E4670471561400065014000F8B500BF02
:0C9C0000F8BC08BC9E46704741014000C3
:089C0C00DCF8FF7F01000000FD
:109C14000100000000093D00AAAAAAAA10004020E1
:109C240000000000FC02402064034020CC034020DC
:109C34000000000000000000000000000000000020
:109C44000000000000000000000000000000000010
:109C54000000000000000000000000000000000000
:109C640000000000000000000000000000000000F0
:109C740000000000000000000000000000000000E0
:109C840000000000000000000000000000000000D0
:109C940000000000000000000000000000000000C0
:109CA40000000000000000000000000000000000B0
:109CB40000000000000000000000000000000000A0
:109CC400000000000000000001000000000000008F
:109CD4000E33CDAB34126DE6ECDE05000B00000054
:109CE4000000000000000000000000000000000070
:109CF4000000000000000000000000000000000060
:109D0400000000000000000000000000000000004F
:109D1400000000000000000000000000000000003F
:10A05400380440203804402040044020400440207C
:10A06400480440204804402050044020500440202C
:10A0740058044020580440206004402060044020DC
:10A08400680440206804402070044020700440208C
:10A09400780440207804402080044020800440203C
:10A0A40088044020880440209004402090044020EC
:10A0B4009804402098044020A0044020A00440209C
:10A0C400A8044020A8044020B0044020B00440204C
:10A0D400B8044020B8044020C0044020C0044020FC
:10A0E400C8044020C8044020D0044020D0044020AC
:10A0F400D8044020D8044020E0044020E00440205C
:10A10400E8044020E8044020F0044020F00440200B
:10A11400F8044020F80440200005402000054020B9
:10A124000805402008054020100540201005402067
:10A134001805402018054020200540202005402017
:10A1440028054020280540203005402030054020C7
:10A154003805402038054020400540204005402077
:10A164004805402048054020500540205005402027
:10A1740058054020580540206005402060054020D7
:10A184006805402068054020700540207005402087
:10A194007805402078054020800540208005402037
:10A1A40088054020880540209005402090054020E7
:10A1B4009805402098054020A0054020A005402097
:10A1C400A8054020A8054020B0054020B005402047
:10A1D400B8054020B8054020C0054020C0054020F7
:10A1E400C8054020C8054020D0054020D0054020A7
:10A1F400D8054020D8054020E0054020E005402057
:10A20400E8054020E8054020F0054020F005402006
:10A21400F8054020F80540200006402000064020B4
:10A224000806402008064020100640201006402062
:10A234001806402018064020200640202006402012
:10A2440028064020280640203006402030064020C2
:10A254003806402038064020400640204006402072
:10A264004806402048064020500640205006402022
:10A2740058064020580640206006402060064020D2
:10A284006806402068064020700640207006402082
:10A294007806402078064020800640208006402032
:10A2A40088064020880640209006402090064020E2
:10A2B4009806402098064020A0064020A006402092
:10A2C400A8064020A8064020B0064020B006402042
:10A2D400B8064020B8064020C0064020C0064020F2
:10A2E400C8064020C8064020D0064020D0064020A2
:10A2F400D8064020D8064020E0064020E006402052
:10A30400E8064020E8064020F0064020F006402001
:10A31400F8064020F80640200007402000074020AF
:10A32400080740200807402010074020100740205D
:10A33400180740201807402020074020200740200D
:10A3440028074020280740203007402030074020BD
:10A35400380740203807402040074020400740206D
:10A36400480740204807402050074020500740201D
:10A3740058074020580740206007402060074020CD
:10A38400680740206807402070074020700740207D
:10A39400780740207807402080074020800740202D
:10A3A40088074020880740209007402090074020DD
:10A3B4009807402098074020A0074020A00740208D
:10A3C400A8074020A8074020B0074020B00740203D
:10A3D400B8074020B8074020C0074020C0074020ED
:10A3E400C8074020C8074020D0074020D00740209D
:10A3F400D8074020D8074020E0074020E00740204D
:10A40400E8074020E8074020F0074020F0074020FC
:10A41400F8074020F80740200008402000084020AA
:10A424000808402008084020100840201008402058
:10A434001808402018084020200840202008402008
:10A4440028084020280840203008402030084020B8
:10A45400FFFFFFFF00000200200D4020430000002A
:10A4640000000000000000000000000000000000E8
:10A474000000000000000000000000004300000095
:10A4840000000000000000000000000000000000C8
:10A494000000000000000000000000004300000075
:10A4A40000000000000000000000000000000000A8
:10A4B4000000000000000000000000004300000055
:10A4C4000000000000000000000000000000000088
:10A4D4000000000000000000000000004300000035
:10A4E4000000000000000000000000000000000068
:10A4F4000000000000000000000000004300000015
:10A504000000000000000000000000000000000047
:10A5140000000000000000000000000043000000F4
:10A524000000000000000000000000000000000027
:10A53400000000000000000000000000A1884000AE
:10A54400397B400000000000E49A4000E499400098
:10A55400CC984000CC984000CC984000CC98400067
:10A56400CC984000CC984000CC984000CC98400057
:10A57400CC984000FFFFFFFFFFFFFFFFFFFFFFFF3F
:10A58400FFFF00000100415343494900000000005F
:10A5940000000000000000000000000000000000B7
:10A5A400000000000000415343494900000000003E
:10A5B4000000000000000000000000000000000097
:08A5C40000000000000000008F
:0400000500400CC5E6
:00000001FF
