S00E000053414D4537302E7372656389
S214400000F0244020ED054000E9054000E9054000A9
S214400010E9054000E9054000E90540000000000011
S214400020000000000000000000000000E90540005D
S214400030E905400000000000E9054000E9054000F1
S214400040E9054000E9054000E9054000E9054000B3
S214400050E9054000E9054000E9054000E9054000A3
S214400060E90540000000000011044000250440005F
S21440007039044000E9054000E9054000E905400034
S2144000804D04400061044000E9054000E905400099
S214400090E9054000E9054000E9054000E905400063
S2144000A0E9054000E9054000E9054000E905400053
S2144000B0E9054000E9054000E9054000E905400043
S2144000C0E9054000E9054000E9054000E905400033
S2144000D000000000E905400000000000E90540007F
S2144000E0E9054000E9054000E9054000E905400013
S2144000F0E9054000E9054000E9054000E905400003
S214400100E9054000E9054000E9054000E9054000F2
S214400110E90540000000000000000000000000006C
S214400120E9054000E9054000E9054000E9054000D2
S214400130E905400000000000E9054000E9054000F0
S21440014010B5054C237833B9044B13B10448AFF3CC
S21440015000800123237010BD3C04402000000000B6
S2144001606C0A40000C4B43B10C480D4910B5AFF338
S21440017000800C48036823B910BD0A48036833B9A9
S2144001807047094B002BF7D0BDE810401847064B88
S214400190002BF5D0184700BF000000006C0A400056
S2144001A0400440206C0A40000000000010B5104893
S2144001B0104B98473E2100200F4B98470F4CA047C6
S2144001C00028FCD00E4B98470E4A0F4B9A620F4CB5
S2144001D0A0470028FCD002200D4B984700200D4B2E
S2144001E098470D4B98470248024B984710BD00BFB2
S2144001F000A3E111C107400011054000650540001D
S21440020075054000013F182000060E408505400059
S21440021075044000AD044000B506400021F0006182
S214400220B1F1405F05D1836B134214BF012000201B
S2144002307047C36BF8E74264B1F1C05F3AD013D859
S214400240B1F1006F25D0B1F1805F0AD1036F13433F
S2144002500367436F416F0B4023EA020343674260E4
S21440026070470029FBD17047B1F1205F21D009D8F3
S214400270B1F1005FF3D1036F13430367436F13433A
S2144002804367ECE7B1F1405F13D0B1F1605F10D047
S214400290E5E710B4016F046FD34321401C46194074
S2144002A00167436F416F0B402340436742605DF8F0
S2144002B0044B7047036F016F0B4023EA020303674A
S2144002C0436F13434367CAE7416412F0010F0DD1F1
S2144002D0016612F00A0F0BD0016212F0020F09D12C
S2144002E012F0080F08D0C0F8841005E04166F0E729
S2144002F04162F2E7C0F8801041610160704710B477
S214400300019C41644CB901664BB101654AB94163F1
S214400310016101605DF8044B70474166F4E7416552
S214400320F4E70163F4E7000070B582B00546164670
S2144003301C46B1F1005F14D00AD9B1F1405F24D019
S214400340B1F1605F21D0B1F1205F17D000201AE0F4
S214400350B1F1805F05D0B1F1C05F02D0B1F1006F5E
S214400360F4D132462846114B984714F0010F02D17B
S2144003702E66012007E06E66012004E01A463146EC
S2144003800B4B9847012002B070BD04F00103009368
S214400390C4F38003B1F1605F14BF002201223146EE
S2144003A02846044CA0470120EDE700BF3702400036
S2144003B0C9024000FF024000C06C7047806C704726
S2144003C02DE9F041044688460E4B984705462046A0
S2144003D00D4B9847054013D00C4C04F1600603E0E3
S2144003E0B4420DD010345DB120684045F8D1616804
S2144003F02942F5D0E3689847636825EA0305EFE7A6
S214400400BDE8F081B9034000BD03400058044020D9
S21440041008B50A210148024B984708BD000E0E4019
S214400420C103400008B50B210148024B984708BD60
S21440043000100E40C103400008B50C210148024B95
S214400440984708BD00120E40C103400008B5102171
S2144004500148024B984708BD00140E40C1034000B7
S21440046008B511210148024B984708BD00160E40BA
S214400470C1034000032811D0042812D002280CBF24
S2144004804FF480710021084A136B23F440730B43EA
S2144004901363936E13F0080FFBD070474FF4407110
S2144004A0F1E74FF40071EEE700060E40174A136B73
S2144004B023F0700318431063936E13F0080F0AD1AD
S2144004C04FF4805311498A6E12F0080F03D1013B56
S2144004D0F9D1012070470D4A136B23F0030343F014
S2144004E002031363936E13F0080F0AD14FF4805340
S2144004F006498A6E12F0080F05D1013BF9D101205A
S2144005007047002070470020704700BF00060E402E
S214400510A0B90E48036A090289B20D4A1A400D4B2B
S2144005201343194301620246936E13F0010FFBD04A
S214400530064A116A084B0B431362704703490B6A1D
S214400540064A1A40064B13430B62704700060E409D
S214400550FCFFC8FF0100370000003701FCFFC8FE63
S21440056002003701024B986E00F48030704700BF9F
S21440057000060E404FF00052014B9A62704700BF93
S21440058000060E40024B986E00F00200704700BF17
S21440059000060E403F281ED81F280CD8114B9A69DB
S2144005A001238340934318D0012303FA00F00D4BF8
S2144005B018610020704720380A4BD3F808210123E1
S2144005C0834093430BD0012303FA00F0054BC3F856
S2144005D0000100207047012070470020704700202F
S2144005E0704700BF00060E40FEE7000000B583B02F
S2144005F0254B264A9A4210D0254B234A9A420CD283
S214400600013B9B1A23F00303043313441F4951F85C
S214400610040B42F8040B9A42F9D11E4B1E4A9A42EA
S2144006200AD2013B9B1A23F00303043313440021F0
S21440063042F8041B9342FBD1184A194B23F07F0320
S2144006409360EFF31083B3FA83F35B09019372B6BA
S214400650BFF35F8F0022134B1A700199124A13683A
S21440066043F470031360BFF34F8FBFF36F8F29B10E
S21440067001220C4B1A70BFF35F8F62B60B4B984744
S2144006800B4B9847FEE700BF000040206C0A400036
S2144006903C044020EC0440203C04402000ED00E0B8
S2144006A0000040000A00402088ED00E0D5084000E9
S2144006B0350840003B4B1B6B03F00303012B1DD05A
S2144006C083B1022B36D0374B1B6B03F07003702B75
S2144006D05FD0344B1A6B3449C2F302120B68D340D6
S2144006E00B607047314B5B6913F0800F14BF4FF4BB
S2144006F000424FF4FA422C4B1A60E4E7294B1B6A3F
S21440070013F0807F03D02A4A274B1A60DBE7294A3A
S214400710254B1A60234B1B6A03F07003102B05D041
S214400720202BD0D1224A204B1A60CCE7224A1E4BBF
S2144007301A60C8E71B4B1B6A13F0807F16D01C4A12
S214400740194B1A60174B1B6B03F00303022BBAD1ED
S214400750144A916A926A1448C1F30A41036801FB3D
S2144007600333D2B2B3FBF2F30360ACE7114A0E4B4D
S2144007701A600C4B1B6A03F07003102B05D0202B1D
S214400780E0D10B4A084B1A60DCE70B4A064B1A606E
S214400790D8E7054A13680949A1FB03135B081360B1
S2144007A0704700BF00060E400C00402010180E4058
S2144007B0001BB70000093D0000127A00ABAAAAAAA7
S2144007C0124B984211D9124B984213D9114B98426A
S2144007D014D9114B984215D9104B984294BF4FF0FC
S2144007E004220F4A0F4B1A6070474FF080620D4B41
S2144007F01A6070470C4A0B4B1A6070470B4A094BFD
S2144008001A6070470A4A074B1A607047FF2C31013E
S214400810FF596202FF869303FFB3C404FFE0F50569
S21440082000050004000C0E40000100040002000415
S214400830000300042DE9F0471D4B98474FF4004253
S2144008401C4B5A600C201C4CA0470A20A047002393
S2144008504FF480724FF040511848194CA04701237E
S2144008604FF400624FF020511648A047DFF854A0DE
S214400870124E154F02E04FF4807333634FF400621C
S2144008804FF020515046114B98470028F3D105248D
S2144008904FF48078C1460E4DC6F834903846A84787
S2144008A0C6F830803846A847013CF5D1E6E700BF99
S2144008B0AD01400050180E409505400000120E4015
S2144008C029034000000E0E4049569A001D02400083
S2144008D00100402070B50F4E0F4D761BB61018BF66
S2144008E0002405D0013455F8043B9847A642F9D178
S2144008F00A4E0B4D761B00F0A7F8B61018BF002422
S21440090006D0013455F8043B9847A642F9D170BD4D
S21440091070BD00BF540A4000540A40005C0A4000C4
S214400920540A4000024B13B1024800F005B8704725
S2144009300000000045094000002301461A461846BC
S21440094000F01EB838B50A4C0A4D641BA4100AD0F5
S21440095004F18043013B05EB8305013C55F804391F
S2144009609847002CF9D1BDE8384000F077B800BF72
S2144009706C0A4000680A4000704700BF704700BFDE
S2144009802DE9F8432C4D0646286898460F46914672
S214400990FFF7F2FF294B1C68D4F84831002B3ED0B5
S2144009A05A681F2A1CDC02F1010E76B103EB820165
S2144009B00124C1F88890D3F8880194402043022E41
S2144009C0C3F88801C1F8088123D00232C3F804E096
S2144009D0286843F82270FFF7D1FF0020BDE8F8836F
S2144009E0174B0BB34FF4C870AFF300800346D8B133
S2144009F0D4F848210260002141600A46C4F8480104
S214400A004FF0010EC0F88811C0F88C11002EDCD0D3
S214400A10CCE7D3F88C110C43C3F88C41D5E704F5EA
S214400A20A673C4F84831BBE72868FFF7A7FF4FF026
S214400A30FF30BDE8F88300BF38044020440A400039
S214400A400000000010004020F8B500BFF8BC08BC0D
S214400A509E4670472509400065014000F8B500BF36
S210400A60F8BC08BC9E46704741014000B0
S214400A6CBFF35F8F0138FBD17047010000093D0092
S214400A7C00000000FC02402064034020CC034020D1
S214400A8C0000000000000000000000000000000015
S214400A9C0000000000000000000000000000000005
S214400AAC00000000000000000000000000000000F5
S214400ABC00000000000000000000000000000000E5
S214400ACC00000000000000000000000000000000D5
S214400ADC00000000000000000000000000000000C5
S214400AEC00000000000000000000000000000000B5
S214400AFC00000000000000000000000000000000A5
S214400B0C0000000000000000000000000000000094
S214400B1C0000000000000000010000000000000083
S214400B2C0E33CDAB34126DE6ECDE05000B00000048
S214400B3C0000000000000000000000000000000064
S214400B4C0000000000000000000000000000000054
S214400B5C0000000000000000000000000000000044
S214400B6C0000000000000000000000000000000034
S210400E9C0000000000000000C8044020D9
S8044005EDC9
